:100000000C944C000C9474000C9474000C947400C8
:100010000C9474000C9474000C9474000C94740090
:100020000C9474000C9474000C9474000C94740080
:100030000C9474000C9474000C9474000C94740070
:100040000C9474000C9474000C9474000C94740060
:100050000C9474000C9474000C9474000C94740050
:100060000C94FF040C947400084AD73B3BCE016EFD
:1000700084BCBFFDC12F3D6C74319ABD56833DDAFF
:100080003D00C77F11BED9E4BB4C3E916BAAAABE0E
:10009000000000803F00470811241FBECFEFD8E0CA
:1000A000DEBFCDBF11E0A0E0B1E0E2E2F7E102C0C7
:1000B00005900D92A632B107D9F721E0A6E2B1E092
:1000C00001C01D92A53BB207E1F710E0CCE4D0E0FF
:1000D00004C02197FE010E949708CB34D107C9F7CD
:1000E0000E9415080C948F0B0C940000089580E476
:1000F00080937C0087E880937A00089590917C003B
:100100008770987F892B80937C0080917A0080642F
:1001100080937A0080917A0086FDFCCF80917800F0
:10012000909179000895FC0160830895FC0180811D
:100130008234E1F562FF0BC083B1082E000C990BED
:1001400080959095892F881F8827881F31C063FF6D
:1001500006C083B182958695869583701EC064FF24
:1001600005C083B182958695877017C065FF04C06E
:1001700083B182958F7011C066FF05C083B18695EB
:10018000869586950AC067FF04C083B186958695DB
:1001900004C070FF04C083B1869591E004C071FF74
:1001A00006C093B181E08927817002C0089580E084
:1001B00090E00895FC019B012170332760FF21C06E
:1001C00080818234F1F462FF02C0279A1AC063FF73
:1001D00002C0269A16C064FF02C0259A12C065FFAD
:1001E00002C0249A0EC066FF02C0239A0AC067FFAD
:1001F00002C0229A06C070FF02C0219A02C071FD9F
:10020000209ACB018270992761FF6EC040814234F1
:10021000F9F462FF02C027981BC063FF02C0269852
:1002200017C064FF02C0259813C065FF02C0249860
:100230000FC066FF02C023980BC067FF02C0229860
:1002400007C070FF02C0219803C071FF0DC0209845
:10025000232B51F02081243409F04DC062FF28C0C7
:10026000579A892B09F447C08081843409F043C030
:1002700062FF02C05798089563FF02C05698089520
:1002800064FF02C05598089565FF02C05498089510
:1002900066FF02C05398089567FF02C05298089500
:1002A00070FF02C05198089571FF25C050980895BD
:1002B00063FF02C0569AD5CF64FF02C0559AD1CFD2
:1002C00065FF02C0549ACDCF66FF02C0539AC9CFD2
:1002D00067FF02C0529AC5CF70FF02C0519AC1CFCA
:1002E00071FF06C0509ABDCF232B09F0B3CF0895FC
:1002F000892B09F0BDCF0895FC018081823409F07B
:100300003FC062FF06C061FF02C02F9A08952F9878
:10031000089563FF06C061FF02C02E9A08952E98CB
:10032000089564FF06C061FF02C02D9A08952D98BC
:10033000089565FF06C061FF02C02C9A08952C98AD
:10034000089566FF06C061FF02C02B9A08952B989E
:10035000089567FF06C061FF02C02A9A08952A988F
:10036000089570FF06C061FF02C0299A0895299878
:10037000089571FF05C061FF02C0289A089528986A
:100380000895CF93DF9300D0CDB7DEB765E4CE01FB
:1003900002960E94930065E4CE0101960E949300AC
:1003A00062E072E0CE0102960E94DA0061E071E044
:1003B000CE0101960E94DA001092C00088E9809375
:1003C000C10086E08093C20087E690E09093C5006C
:1003D0008093C4000F900F90DF91CF91089580918A
:1003E000C00085FFFCCF6093C60008958091C000D7
:1003F00085FFFCCF6093C60008950F931F93CF93A2
:10040000DF938C01EB016991662321F0C8010E9402
:10041000EF01F9CFDF91CF911F910F910895809156
:10042000C00087FF03C08091C600089580E0089552
:100430004F925F926F927F92AF92BF92CF92DF9274
:10044000EF92FF920F931F93CF93DF93CDB7DEB759
:100450005C01CDB6DEB62B01770F66087708C301C5
:10046000B2010E94E0027C012FEFE21AF20A2DB7DE
:100470003EB7281B390B0FB6F8943EBF0FBE2DBFF9
:100480000DB71EB70F5F1F4F9701A801C301B2013F
:100490000E941403F801EE0DFF1D1082B8016F5F7A
:1004A0007F4FC5010E94FD010FB6F894DEBE0FBE5E
:1004B000CDBEDF91CF911F910F91FF90EF90DF9014
:1004C000CF90BF90AF907F906F905F904F900895C6
:1004D0006130710531F484B18C6284B9249881E56E
:1004E00005C0672B31F42398249A81E48CBD81E008
:1004F0008DBD0895CF93DF9300D0CDB7DEB7CE0189
:1005000001966A830E94C1016A816EBD0DB407FE27
:10051000FDCF8EB50F900F90DF91CF9108956EBDF6
:100520008DB58EB50895FB018191BF01882351F0EF
:100530008EBD8DB58EB58FE39CE90197F1F700C0B4
:100540000000F1CF08958FEF8EBD8DB58EB5089563
:100550008FEF8EBD8DB58EB50895EF92FF920F93FC
:100560001F93CF93DF931F92CDB7DEB7E82ECE0156
:1005700001960E94C10107E010E00E2C000CFF085C
:10058000C701002E02C0959587950A94E2F780FF77
:1005900002C061E301C060E3CE0101960E94EF0159
:1005A0000150110968F76AE0CE0101960E94EF013F
:1005B0000F90DF91CF911F910F91FF90EF900895D1
:1005C000CF92DF92EF92FF92CF93DF936115710587
:1005D0008105910501F197FF0AC09095809570956E
:1005E00061957F4F8F4F9F4FC1E0D0E002C0C0E0C8
:1005F000D0E02AE0C22ED12CE12CF12CA7019601EB
:100600000E944B08CA01B9012196232B242B252BCC
:10061000A9F7CE0102C081E090E0DF91CF91FF9079
:10062000EF90DF90CF9008952F923F924F925F927C
:100630006F927F928F929F92AF92BF92CF92DF92F2
:10064000EF92FF920F931F93CF93DF9300D000D0D0
:100650001F92CDB7DEB76B017C014A01890197FF7C
:1006600011C01216130624F08DE2F401818360C0DC
:10067000F094E094D094C094C11CD11CE11CF11CF6
:10068000198206C0121613060CF04EC0F1E0F98371
:10069000180121E0221A310854013D822C822601E2
:1006A0003701E0E0F0E021E030E040E050E08C8114
:1006B0009D81E817F90744F4AAE0B0E00E946A08B7
:1006C0009B01AC013196F3CF5B824A82C701B60130
:1006D0000E944B0829013A01EC81FD81E215F305E6
:1006E00019F480E3820F0DC04AE02A813B81429FCA
:1006F000C001439F900D1124F201E81BF90BCF01BB
:10070000805DF50180832C813D81215031093D833D
:100710002C833FEFA31AB30A8C819D81019609F6C1
:10072000F981FF2309F4A0CF012B11F4F401C08259
:1007300080E090E00F900F900F900F900F90DF915E
:10074000CF911F910F91FF90EF90DF90CF90BF90CE
:10075000AF909F908F907F906F905F904F903F9061
:100760002F9008958F929F92AF92BF92CF92DF9277
:10077000EF92FF920F931F93CF93DF93CDB7DEB726
:1007800027970FB6F894DEBF0FBECDBF6C016AE0AD
:10079000CE0107960E94EF01760187010C191D0911
:1007A0005701F70161917F01603229F0CE01079670
:1007B0000E94EF01F2CF6AE0CE0107960E94EF019E
:1007C000F501319780E090E04AE050E0C12CD12C57
:1007D0007601AAE08017910751F12081009751F42A
:1007E000622F220F770B605371096B01770FEE08B0
:1007F000FF081AC0022E000C330B20533109249F2E
:100800004001259F900C349F900C1124092C000C62
:10081000AA08BB08C80CD91CEA1CFB1C9A01A29FA1
:10082000A001A39F500D112431970196D3CF6AE008
:10083000CE0107960E94EF01C701B6010E94E002B7
:100840004C019C018E010F5F1F4FA801C701B6012B
:100850000E9414035801C501801B910B881599054E
:1008600044F4F50161915F01CE0107960E94EF010A
:10087000F2CF6AE0CE0107960E94EF01C6012796EB
:100880000FB6F894DEBF0FBECDBFDF91CF911F91A1
:100890000F91FF90EF90DF90CF90BF90AF909F901F
:1008A0008F90089580E28093B8001092B900109262
:1008B000B401789484E08093BC0008958091B401E1
:1008C0008111FCCF81E991E0089585EA8093BC0015
:1008D000089584E98093BC00089585EC8093BC0062
:1008E000089585E88093BC0008958093BB00089527
:1008F000A0E9B1E09196EC91919781E08E0F9196ED
:100900008C938091BB00F0E0E057FE4F8083089508
:100910002091B10130E08091B00190E0019728175B
:10092000390714F485EC01C085E88093BC00089574
:100930008091900190E0959587951092B401E09197
:10094000B201F091B301309719F061E971E00994B7
:100950000895FF920F931F93CF93DF9300D01F92C0
:10096000CDB7DEB7F82E89014B8369837A830E9465
:100970005E0481E08093B401E0E9F1E0FF0CF082D5
:100980004B81840F80A311A213A302A350E06981BD
:100990007A8181E991E00E94860B85EA8093BC0010
:1009A0000F900F900F90DF91CF911F910F91FF90BB
:1009B0000895FF920F931F93CF93DF931F92CDB7AC
:1009C000DEB7F82E8A0169830E945E0481E080937D
:1009D000B401E0E9F1E08F2D880F816080836981A7
:1009E0006F5F60A311A213A302A385EA8093BC00EA
:1009F0000F90DF91CF911F910F91FF9008951F925B
:100A00000F920FB60F9211242F933F934F935F9342
:100A10006F937F938F939F93AF93BF93EF93FF93C6
:100A20008091B900887F883279F038F4803161F0A4
:100A3000883151F0883019F507C08035C9F0883504
:100A4000E1F08034E1F416C0E091B1018091B00191
:100A5000E817A8F481E08E0F8093B101F0E0E05731
:100A6000FE4F80818093BB0085E88093BC000CC062
:100A70000E9478040E94880407C00E94780484E9D8
:100A80008093BC000E949804FF91EF91BF91AF91B9
:100A90009F918F917F916F915F914F913F912F9196
:100AA0000F900FBE0F901F9018950C94520408954C
:100AB000CF93DF9300D0CDB7DEB769834A8320E0C0
:100AC00030E042E0BE016F5F7F4F88E60E94A904DC
:100AD00020E030E042E0BE016E5F7F4F88E60E947A
:100AE000A9040F900F90DF91CF9108952F923F921C
:100AF0004F925F926F927F928F929F92AF92BF922E
:100B0000CF92DF92EF92FF920F931F93CF93DF93D9
:100B1000CDB7DEB761970FB6F894DEBF0FBECDBF7D
:100B20001C0141ED6BE30E9458058BE3898320E0B3
:100B300030E041E0BE016F5F7F4F88E60E94A9046C
:100B400040E050E06EE088E60E94D9040E945E0416
:100B5000FC01A0808A2D90E0B82EAA24A82AB92AE8
:100B6000D1011196BC92AE92C180D12CDC2CCC2448
:100B70008281C82A1396DC92CE921297E380F12CE0
:100B8000FE2CEE248481E82A1596FC92EE921497AE
:100B9000658170E0762F66278681682B17967C9397
:100BA0006E931697078110E0102F00278085082B81
:100BB00019961C930E931897818590E0382F222761
:100BC0008285A901482B5B834A831B965C934E93D5
:100BD0001A97838590E0982F88272485DC01A22B23
:100BE000BF83AE83F101B587A487072E000C880B65
:100BF000990B0E94FF0920E030EF41E456E40E9487
:100C0000AD0820E030E04AEA53E40E948B09D101AC
:100C10005A966D937D938D939C935D97B501BB0C14
:100C2000880B990B0E94FF0920E030E040E858E370
:100C30000E94BA0A4B015C01F101668F778F80A395
:100C400091A3B601DD0C880B990B0E94FF0920E0EF
:100C500030E040E858E30E94BA0A2B013C01D10180
:100C600092966D937D938D939C939597B701FF0C0E
:100C7000880B990B0E94FF0920E030E040E858E320
:100C80000E94BA0AF10166A377A380A791A79B01EE
:100C9000AC010E94BA0A6B017C01A5019401C50157
:100CA000B4010E94BA0A9B01AC01C701B6010E94BF
:100CB000AD080E942D0B9B01AC01C301B2010E9443
:100CC0002C0920E030E044EB53E40E94BA0A20E013
:100CD00030E040E05FE30E94BA0A23EC35EF48E4DD
:100CE00050E40E948B096A877B878C879D87F1017E
:100CF000EE5BFF4F6083718382839383A301920134
:100D0000C301B2010E94BA0A9B01AC01C701B6013E
:100D10000E94AD080E942D0B9B01AC01C501B401DE
:100D20000E942C0920E030E044EB53E40E94BA0A10
:100D300020E030E040E05FEB0E94BA0A23EC35EFA0
:100D400048E450E40E948B096E877F87888B998BDB
:100D5000F101EA5BFF4F6083718382839383B80163
:100D6000110F880B990B0E94FF0920E030E043E847
:100D700052E40E948B09D1011E962D913D914D9117
:100D80005C9151970E94AC084B015C01F10162A794
:100D900073A784A795A72A813B81B901330F880BDC
:100DA000990B0E94FF0920E030E043E852E40E94E2
:100DB0008B09D10152962D913D914D915C915597A2
:100DC0000E94AC086B017C01F10166A777A780AB9C
:100DD00091AB2E813F81B901330F880B990B0E9493
:100DE000FF0920E030E043E852E40E948B09D10182
:100DF00056962D913D914D915C9159970E94AC086A
:100E00002B013C01F10162AB73AB84AB95ABE65AAD
:100E1000FF4F80E090E0A0E8BFE380839183A2834E
:100E2000B383A5019401D101D6966D917D918D91E9
:100E30009C91D9970E94AD08F10166AB77AB80AF6A
:100E400091AFA701960162AD73AD84AD95AD0E94DF
:100E5000AD08D101DA966D937D938D939C93DD97C8
:100E60008101025C1F4FF801208131814281538151
:100E7000C301B2010E94AD086E837F838887998782
:100E8000D8016D937D938D939C931397F101EA594B
:100E9000FF4F408051806280738034972081318180
:100EA000428153812A833B834C835D83005F1F4FC4
:100EB000D8012D913D914D915C91C501B4010E94E5
:100EC000AD089B01AC01C301B2010E94BA0A4B01FB
:100ED0005C012A853B854C855D856A817B818C819F
:100EE0009D810E94BA0A9B01AC01C501B4010E9418
:100EF000AD08F80160837183828393830C5F1F4F79
:100F0000D8012D913D914D915C91C701B6010E9490
:100F1000AD089B01AC01C301B2010E94BA0A6B018A
:100F20007C012E853F85488959896A817B818C8126
:100F30009D810E94BA0A9B01AC01C701B6010E94C3
:100F4000AD08F801608371838283938334962E8188
:100F50003F81488559852083318342835383389666
:100F6000108211821282138261960FB6F894DEBF4E
:100F70000FBECDBFDF91CF911F910F91FF90EF90EA
:100F8000DF90CF90BF90AF909F908F907F906F90A9
:100F90005F904F903F902F900895CF93DF93EC0197
:100FA00047E069E10E94580540E06AE1CE010E94F5
:100FB000580548E16BE1CE010E94580540E06CE124
:100FC000CE010E94580541E06BE6CE010E94580513
:100FD00041E068E3CE010E945805CE010E947605EB
:100FE0001EAA1FAA18AE19AE1AAE1BAE1CAE1DAEBD
:100FF000FE01E25BFF4FDE01AE5BBF4F8D919D9125
:101000000D90BC91A02D80839183A283B3833496ED
:10101000CA5BDF4F88819981AA81BB8180839183DC
:10102000A283B383DF91CF910895CF93DF931F9273
:10103000CDB7DEB7CE0101960E94C10160E071E03C
:10104000CE0101960E94FD010E94520486E291E0C9
:101050000E94CD0786E291E00E947605009126016C
:101060001091270168E171E0CE0101960E94FD0117
:10107000B801CE0101960E9418022FEF89E698E18F
:10108000215080409040E1F700C00000E3CF86E2AD
:1010900091E00C945505052E97FB1EF400940E94D8
:1010A000620857FD07D00E94750807FC03D04EF474
:1010B0000C94620850954095309521953F4F4F4FC5
:1010C0005F4F089590958095709561957F4F8F4FF4
:1010D0009F4F08950E949D08A59F900DB49F900D6D
:1010E000A49F800D911D11240895A1E21A2EAA1B20
:1010F000BB1BFD010DC0AA1FBB1FEE1FFF1FA217C8
:10110000B307E407F50720F0A21BB30BE40BF50BC4
:10111000661F771F881F991F1A9469F7609570954D
:10112000809590959B01AC01BD01CF010895EE0F14
:10113000FF1F0590F491E02D0994A29FB001B39F89
:10114000C001A39F700D811D1124911DB29F700DD0
:10115000811D1124911D08955058BB27AA270E9474
:10116000C4080C94780A0E946A0A38F00E94710A36
:1011700020F039F49F3F19F426F40C94400A0EF441
:10118000E095E7FB0C943A0AE92F0E94890A58F38C
:10119000BA17620773078407950720F079F4A6F55C
:1011A0000C94AB0A0EF4E0950B2EBA2FA02D0B0178
:1011B000B90190010C01CA01A0011124FF27591B9C
:1011C00099F0593F50F4503E68F11A16F040A22FA2
:1011D000232F342F4427585FF3CF46953795279513
:1011E000A795F0405395C9F77EF41F16BA0B620B12
:1011F000730B840BBAF09150A1F0FF0FBB1F661F59
:10120000771F881FC2F70EC0BA0F621F731F841F9B
:1012100048F4879577956795B795F7959E3F08F0C1
:10122000B0CF9395880F08F09927EE0F9795879583
:1012300008950E946A0A60F080E891E009F49EEF48
:101240000E94710A28F040E851E071F45EEF0CC092
:101250000C94400A0C94AB0AE92FE0780E94890AAA
:1012600040F3092E052AB1F3261737074807590717
:1012700038F00E2E07F8E02569F0E025E0640AC09A
:10128000EF6307F8009407FADB01B9019D01DC0167
:10129000CA01AD01EF930E94A2090E94780A0E9440
:1012A0005C095F91552339F02BED3FE049E450FD97
:1012B00049EC0C94AD080895DF93DD27B92FBF7773
:1012C00040E85FE31616170648075B0718F4D92FA6
:1012D0000E94B20A9F938F937F936F930E946D0B2E
:1012E000E8E6F0E00E94430A0E94780A2F913F91BD
:1012F0004F915F910E94CD0ADD2351F09058A2EAF0
:101300002AED3FE049EC5FE3D0785D270E94C408F6
:10131000DF910C94780A0E949F090C94780A0E942D
:10132000710A58F00E946A0A40F029F45F3F29F0E0
:101330000C943A0A51110C94AC0A0C94400A0E9485
:10134000890A68F39923B1F3552391F3951B550B43
:10135000BB27AA2762177307840738F09F5F5F4F88
:10136000220F331F441FAA1FA9F335D00E2E3AF0C7
:10137000E0E832D091505040E695001CCAF72BD0DF
:10138000FE2F29D0660F771F881FBB1F2617370730
:101390004807AB07B0E809F0BB0B802DBF01FF2762
:1013A00093585F4F3AF09E3F510578F00C943A0AFB
:1013B0000C94AC0A5F3FE4F3983ED4F3869577959E
:1013C0006795B795F7959F5FC9F7880F911D96951B
:1013D000879597F90895E1E0660F771F881FBB1F77
:1013E000621773078407BA0720F0621B730B840B24
:1013F000BA0BEE1F88F7E0950895E89409C097FBB3
:101400003EF490958095709561957F4F8F4F9F4FDB
:101410009923A9F0F92F96E9BB279395F69587951F
:1014200077956795B795F111F8CFFAF4BB0F11F4E2
:1014300060FF1BC06F5F7F4F8F4F9F4F16C0882389
:1014400011F096E911C0772321F09EE8872F762FBF
:1014500005C0662371F096E8862F70E060E02AF000
:101460009A95660F771F881FDAF7880F96958795EC
:1014700097F9089597F99F6780E870E060E0089514
:101480009FEF80EC0895DF93CF931F930F93FF920C
:10149000EF92DF927B018C01689406C0DA2EEF0197
:1014A0000E94CD0AFE01E894A591259135914591C0
:1014B0005591A6F3EF010E94C408FE019701A8010F
:1014C000DA9469F7DF90EF90FF900F911F91CF9121
:1014D000DF91089500240A941616170618060906C7
:1014E000089500240A94121613061406050608959A
:1014F000092E0394000C11F4882352F0BB0F40F422
:10150000BF2B11F460FF04C06F5F7F4F8F4F9F4F61
:10151000089557FD9058440F551F59F05F3F71F0E3
:101520004795880F97FB991F61F09F3F79F087954A
:101530000895121613061406551FF2CF4695F1DFD3
:1015400008C0161617061806991FF1CF8695710563
:10155000610508940895E894BB2766277727CB0197
:1015600097F908959B01AC0160E070E080E89FE38B
:101570000C948B090E94CD0A0C94780A0E946A0A86
:1015800038F00E94710A20F0952311F00C943A0A69
:101590000C94400A11240C94AC0A0E94890A70F33E
:1015A000959FC1F3950F50E0551F629FF001729F08
:1015B000BB27F00DB11D639FAA27F00DB11DAA1F17
:1015C000649F6627B00DA11D661F829F2227B00D64
:1015D000A11D621F739FB00DA11D621F839FA00DEF
:1015E000611D221F749F3327A00D611D231F849F3F
:1015F000600D211D822F762F6A2F11249F57504096
:101600009AF0F1F088234AF0EE0FFF1FBB1F661F10
:10161000771F881F91505040A9F79E3F510580F0D9
:101620000C943A0A0C94AC0A5F3FE4F3983ED4F36E
:10163000869577956795B795F795E7959F5FC1F77D
:10164000FE2B880F911D9695879597F9089519F4AB
:1016500016F40C94400A0C94710B0E94910AB8F392
:101660009923C9F3B6F39F57550B87FF0E947F0B51
:101670000024A0E640EA900180585695979528F4FA
:10168000805C660F771F881F20F0261737074807F2
:1016900030F4621B730B840B202931294A2BA69549
:1016A00017940794202531254A2758F7660F771F8E
:1016B000881F20F026173707480730F4620B730B9A
:1016C000840B200D311D411DA09581F7B901842F98
:1016D0009158880F9695879508959B01AC010C94BD
:1016E000BA0A9F3F31F0915020F48795779567951E
:1016F000B795880F911D9695879597F90895915004
:101700005040660F771F881FD2F70895FB01DC0158
:1017100002C001900D9241505040D8F70895F894BE
:02172000FFCFF9
:101722002071756520656D7069657A65206C6F2022
:101732006275656E6F200A000A6163656C6572618D
:0617420063696F6E0A00EE
:00000001FF
