:100000000C9434000C9451000C9451000C94510049
:100010000C9451000C9451000C9451000C9451001C
:100020000C9451000C9451000C9451000C9451000C
:100030000C9451000C9451000C9451000C945100FC
:100040000C9451000C9451000C9451000C945100EC
:100050000C9451000C9451000C9451000C945100DC
:100060000C9451000C94510011241FBECFEFD8E026
:10007000DEBFCDBF11E0A0E0B1E0E6E6F8E002C0EF
:1000800005900D92A630B107D9F721E0A6E0B1E0C6
:1000900001C01D92A830B207E1F70E940D040C9434
:1000A00031040C940000FC0160830895FC01808100
:1000B0008234E1F562FF0BC083B1082E000C990B6E
:1000C00080959095892F881F8827881F31C063FFEE
:1000D00006C083B182958695869583701EC064FFA5
:1000E00005C083B182958695877017C065FF04C0EF
:1000F00083B182958F7011C066FF05C083B186956C
:10010000869586950AC067FF04C083B1869586955B
:1001100004C070FF04C083B1869591E004C071FFF4
:1001200006C093B181E08927817002C0089580E004
:1001300090E00895FC019B012170332760FF21C0EE
:1001400080818234F1F462FF02C0279A1AC063FFF3
:1001500002C0269A16C064FF02C0259A12C065FF2D
:1001600002C0249A0EC066FF02C0239A0AC067FF2D
:1001700002C0229A06C070FF02C0219A02C071FD1F
:10018000209ACB018270992761FF6EC04081423472
:10019000F9F462FF02C027981BC063FF02C02698D3
:1001A00017C064FF02C0259813C065FF02C02498E1
:1001B0000FC066FF02C023980BC067FF02C02298E1
:1001C00007C070FF02C0219803C071FF0DC02098C6
:1001D000232B51F02081243409F04DC062FF28C048
:1001E000579A892B09F447C08081843409F043C0B1
:1001F00062FF02C05798089563FF02C056980895A1
:1002000064FF02C05598089565FF02C05498089590
:1002100066FF02C05398089567FF02C05298089580
:1002200070FF02C05198089571FF25C0509808953D
:1002300063FF02C0569AD5CF64FF02C0559AD1CF52
:1002400065FF02C0549ACDCF66FF02C0539AC9CF52
:1002500067FF02C0529AC5CF70FF02C0519AC1CF4A
:1002600071FF06C0509ABDCF232B09F0B3CF08957C
:10027000892B09F0BDCF0895FC018081823409F0FB
:100280003FC062FF06C061FF02C02F9A08952F98F9
:10029000089563FF06C061FF02C02E9A08952E984C
:1002A000089564FF06C061FF02C02D9A08952D983D
:1002B000089565FF06C061FF02C02C9A08952C982E
:1002C000089566FF06C061FF02C02B9A08952B981F
:1002D000089567FF06C061FF02C02A9A08952A9810
:1002E000089570FF06C061FF02C0299A08952998F9
:1002F000089571FF05C061FF02C0289A08952898EB
:100300000895CF93DF9300D0CDB7DEB765E4CE017B
:1003100002960E94530065E4CE0101960E945300AC
:1003200062E072E0CE0102960E949A0061E071E004
:10033000CE0101960E949A001092C00088E9809335
:10034000C10086E08093C20087E690E09093C500EC
:100350008093C4000F900F90DF91CF91089580910A
:10036000C00085FFFCCF6093C60008958091C00057
:1003700085FFFCCF6093C60008950F931F93CF9322
:10038000DF938C01EB016991662321F0C8010E9483
:10039000AF01F9CFDF91CF911F910F910895809117
:1003A000C00087FF03C08091C600089580E00895D3
:1003B0006130710559F484B1876084B92398289A13
:1003C00081E58CBD8DB58E7F8DBD0895672B21F4A1
:1003D0002398249A80E48CBD0895289A6EBD0EB4AB
:1003E00007FEFDCF8EB528980895289A6EBD0EB4ED
:1003F00007FEFDCF8EB5289808950F931F93CF93D6
:10040000DF938C01EB016991662351F0C8010E94D2
:10041000F5018FE39CE90197F1F700C00000F3CFED
:10042000DF91CF911F910F910895CF93DF931F928A
:10043000CDB7DEB762E4CE0101960E94530062E8B8
:1004400070E0CE0101960E949A008FEF8EBD80E091
:1004500090E03FEF2DB5883E43E0940721F48EB540
:100460003EBD80E090E0019627FFF4CF8EB50F905F
:10047000DF91CF9108958FEF8EBD0DB407FEFDCFB4
:100480008EB50895CF93DF931F92CDB7DEB761E0AD
:1004900070E0CE0101960E94D8010F90DF91CF91BC
:1004A000089584B1836084B92898289A259808957E
:1004B0000F931F93CF93DF931F92CDB7DEB78C01BD
:1004C00028986F71606249830E94ED014981642F11
:1004D000C8010E94ED01289A0F90DF91CF911F91E2
:1004E0000F910895CF93DF93EC01299862EE0E945B
:1004F000ED01299A40E767E0CE010E945802289852
:100500004BE060E0CE010E945802289ADF91CF9123
:100510000895CF93DF93EC0140930601462F65E0E9
:100520000E94580240E061E1CE010E9458024091D1
:10053000060162E1CE010E94580240E063E1CE0173
:100540000E94580240E064E1CE010E94580240E05F
:1005500065E1CE010E94580240E066E1CE010E94B2
:10056000580246E066E0CE010E94580248E060E092
:10057000CE010E94580243E061E0CE010E94580281
:1005800043E062E0CE010E9458024FE464E0CE01F5
:100590000E94580240E06CE1CE010E945802CE0158
:1005A000DF91CF910C94720228986FEF0E94ED01B9
:1005B000289A80E008950E94D402982F907381E0D9
:1005C00009F080E008950E94D40285FD04C084FDF6
:1005D00004C08FEF089580E0089581E00895CF92E0
:1005E000DF92EF92FF921F93CF93DF931F92CDB7CD
:1005F000DEB77C01162F6B019C2D911B921758F4CE
:10060000F6016081C70129830E94ED01F601819303
:100610006F012981F1CF0F90DF91CF911F91FF9052
:10062000EF90DF90CF900895EF92FF920F931F937A
:10063000CF93DF931F92CDB7DEB77C018A01299853
:100640006F7129830E94ED012981A801B801C701BA
:100650000E94EF02299A0F90DF91CF911F910F9185
:10066000FF90EF900895CF93DF931F92CDB7DEB741
:1006700021E0AE014F5F5F4F67E10E941403898163
:1006800081700F90DF91CF910895CF93DF93EC01AC
:100690000E94D40286FD08C0CE010E94330391E07F
:1006A000882319F090E001C091E0892FDF91CF916C
:1006B00008950F931F93CF93DF93EC018B0128983C
:1006C00061E60E94ED0120910601A801B801CE016A
:1006D0000E94EF02289A40E467E0CE01DF91CF91BB
:1006E0001F910F910C945802CF92DF92EF92FF92DC
:1006F0001F93CF93DF931F92CDB7DEB77C01162FE8
:100700006B019C2D911B941748F4F60161916F01C8
:10071000C70149830E94ED014981F3CF0F90DF911A
:10072000CF911F91FF90EF90DF90CF900895EF92BF
:10073000FF920F931F93CF93DF931F92CDB7DEB736
:100740007C018A0128986F71606229830E94ED0103
:100750002981422FB801C7010E947403289A0F9083
:10076000DF91CF911F910F91FF90EF900895AB0112
:10077000289825E06BE00E949703289A08950F932C
:100780001F93CF93DF93EC018B0125E0AB016AE06F
:100790000E94970325E0A80160E1CE01DF91CF918F
:1007A0001F910F910C949703CF93DF93EC0140E7D7
:1007B00067E00E9458024AE460E0CE01DF91CF91E9
:1007C0000C945802EF92FF920F931F93CF93DF93F5
:1007D0001F92CDB7DEB77C018B01289849830E9418
:1007E000D40381E080930701299861EEC7010E943C
:1007F000ED01299A299860EAC7010E94ED01299A22
:10080000289A4981B801C7010F90DF91CF911F91BC
:100810000F91FF90EF900C947403CF93DF9300D06F
:10082000CDB7DEB7CE0102960E94810105E010E04F
:1008300060E071E0CE0102960E94BD0101501109F5
:10084000B9F760E070E0CE0101960E94D801CE01B8
:1008500001960E943B02682FCE0102960E94AF01D2
:06086000F6CFF894FFCF73
:06086600686F6C610000E8
:00000001FF
