:100000000C9434000C943E000C943E000C943E0082
:100010000C943E000C943E000C943E000C943E0068
:100020000C943E000C943E000C943E000C943E0058
:100030000C943E000C943E000C943E000C943E0048
:100040000C943E000C943E000C943E000C943E0038
:100050000C943E000C943E000C943E000C943E0028
:100060000C943E000C943E0011241FBECFEFD8E04C
:10007000DEBFCDBF0E9479010C94AE010C9400004C
:100080008091C00085FFFCCF6093C60008950F9358
:100090001F93CF93DF938C01EB016991662321F0CD
:1000A000C8010E944000F9CFDF91CF911F910F91BD
:1000B00008958091C00087FF03C08091C600089515
:1000C00080E0089584B1876084B984E0660F771F6B
:1000D0008A95E1F761666CBD08956EBD0DB407FEAB
:1000E000FDCF8EB50895FC016083089560FF22C0A6
:1000F000FC0120812234F1F462FF02C0279A1AC069
:1001000063FF02C0269A16C064FF02C0259A12C07F
:1001100065FF02C0249A0EC066FF02C0239A0AC07F
:1001200067FF02C0229A06C070FF02C0219A02C077
:1001300071FD209A61FF22C0FC0180818234F1F4BC
:1001400062FF02C02798089563FF02C026980895B1
:1001500064FF02C02598089565FF02C024980895A1
:1001600066FF02C02398089567FF02C02298089591
:1001700070FF02C02198089571FD20980895CF93D3
:10018000DF9300D0CDB7DEB785E48A83898362E050
:1001900072E0CE0102960E94760061E071E0CE012D
:1001A00001960E9476001092C00088E98093C100F9
:1001B00086E08093C20087E690E09093C50080932C
:1001C000C4000F900F90DF91CF910895FC018081C2
:1001D000823409F03FC062FF06C061FF02C02F9A5F
:1001E00008952F98089563FF06C061FF02C02E9AFC
:1001F00008952E98089564FF06C061FF02C02D9AED
:1002000008952D98089565FF06C061FF02C02C9ADD
:1002100008952C98089566FF06C061FF02C02B9ACE
:1002200008952B98089567FF06C061FF02C02A9ABF
:1002300008952A98089570FF06C061FF02C0299AA8
:1002400008952998089571FF05C061FF02C0289A9A
:100250000895289808951F93CF93DF931F92CDB7E9
:10026000DEB7162F82E4898361E072E0CE01019649
:100270000E94E6001EBD0EB407FEFDCF62E072E0F4
:10028000CE0101960E94E6000F90DF91CF911F9161
:1002900008951F93CF93DF931F92CDB7DEB7162F2C
:1002A00082E4898361E072E0CE0101960E94E6005B
:1002B0001EBD0EB407FEFDCF62E072E0CE010196D6
:1002C0000E94E6000F90DF91CF911F9108950F9348
:1002D0001F93CF93DF938C01EB016991662321F08B
:1002E000C8010E944901F9CFDF91CF911F910F9171
:1002F0000895CF93DF931F92CDB7DEB762E4CE01AE
:1003000001960E94730061E170E0CE0101960E94A7
:10031000760062E170E0CE0101960E94E6002FEFC8
:1003200081EE94E0215080409040E1F700C0000051
:1003300061E170E0CE0101960E94E6002FEF81EEB0
:1003400094E0215080409040E1F700C0000062E15D
:1003500070E0CE0101960E94E600D0CFF894FFCF66
:00000001FF
