:100000000C9472000C9493000C9493000C94930045
:100010000C9493000C9493000C9493000C94930014
:100020000C9493000C9493000C9493000C94930004
:100030000C9493000C9493000C9493000C949300F4
:100040000C9493000C9493000C9493000C949300E4
:100050000C9493000C9493000C9493000C949300D4
:100060000C9493000C9493000C9493000C949300C4
:100070000C9493000C9493000C9493000C949300B4
:100080000C9493000C9493000C9493000C949300A4
:100090000C9493000C9493000C9493000C94930094
:1000A0000C9493000C9493000C9493000C94930084
:1000B0000C9493000C9493000C9493000C94930074
:1000C0000C9493000C9493000C9493000C94930064
:1000D0000C9493000C9493000C9493000C94930054
:1000E0000C94930011241FBECFEFD1E2DEBFCDBF31
:1000F00000E00CBF12E0A0E0B2E0E4E1FAE000E0D2
:100100000BBF02C007900D92A631B107D9F722E0CC
:10011000A6E1B2E001C01D92AD31B207E1F70E9445
:10012000B3040C9408050C940000EF92FF920F9317
:100130001F93CF93DF931F92CDB7DEB7E82ECE018A
:1001400001960E94F60107E010E00E2C000CFF085B
:10015000C701002E02C0959587950A94E2F780FFAB
:1001600002C061E301C060E3CE0101960E94250256
:100170000150110968F76AE0CE0101960E9425023C
:100180000F90DF91CF911F910F91FF90EF90089505
:10019000FC0160830895FC0180818234E1F562FFF7
:1001A0000BC083B1082E000C990B80959095892F78
:1001B000881F8827881F31C063FF06C083B18295DE
:1001C0008695869583701EC064FF05C083B18295B5
:1001D0008695877017C065FF04C083B182958F70C4
:1001E00011C066FF05C083B18695869586950AC0C5
:1001F00067FF04C083B18695869504C070FF04C074
:1002000083B1869591E004C071FF06C093B181E08F
:100210008927817002C0089580E090E00895FC0174
:100220009B012170332760FF21C080818234F1F46B
:1002300062FF02C0279A1AC063FF02C0269A16C046
:1002400064FF02C0259A12C065FF02C0249A0EC046
:1002500066FF02C0239A0AC067FF02C0229A06C046
:1002600070FF02C0219A02C071FD209ACB018270FA
:10027000992761FF6EC040814234F9F462FF02C0E9
:1002800027981BC063FF02C0269817C064FF02C0F6
:10029000259813C065FF02C024980FC066FF02C0F6
:1002A00023980BC067FF02C0229807C070FF02C0EE
:1002B000219803C071FF0DC02098232B51F020819D
:1002C000243409F04DC062FF28C0579A892B09F4E5
:1002D00047C08081843409F043C062FF02C0579850
:1002E000089563FF02C05698089564FF02C05598B0
:1002F000089565FF02C05498089566FF02C05398A0
:10030000089567FF02C05298089570FF02C0519887
:10031000089571FF25C05098089563FF02C0569A52
:10032000D5CF64FF02C0559AD1CF65FF02C0549A61
:10033000CDCF66FF02C0539AC9CF67FF02C0529A61
:10034000C5CF70FF02C0519AC1CF71FF06C0509A4D
:10035000BDCF232B09F0B3CF0895892B09F0BDCF72
:100360000895FC018081823409F03FC062FF06C01D
:1003700061FF02C02F9A08952F98089563FF06C069
:1003800061FF02C02E9A08952E98089564FF06C05A
:1003900061FF02C02D9A08952D98089565FF06C04B
:1003A00061FF02C02C9A08952C98089566FF06C03C
:1003B00061FF02C02B9A08952B98089567FF06C02D
:1003C00061FF02C02A9A08952A98089570FF06C016
:1003D00061FF02C0299A08952998089571FF05C008
:1003E00061FF02C0289A089528980895CF93DF935B
:1003F0001F921F92CDB7DEB765E4CE0102960E9430
:10040000C80065E4CE0101960E94C80062E072E077
:10041000CE0102960E940F0161E071E0CE010196CB
:100420000E940F011092C00088E98093C10086E00D
:100430008093C20087E690E09093C5008093C4004B
:100440000F900F90DF91CF9108958091C00085FFAC
:10045000FCCF6093C60008958091C00085FFFCCF5B
:100460006093C60008950F931F93CF93DF938C0181
:10047000EB016991662321F0C8010E942502F9CFA2
:10048000DF91CF911F910F9108958091C00087FF58
:1004900003C08091C600089580E0089584B187600C
:1004A00084B9239881E58CBD8DB58E7F8DBD672B7A
:1004B00021F42398249A80E48CBD08956EBD0DB478
:1004C00007FEFDCF8EB508956EBD80E090E02EB59D
:1004D000883E33E0930719F46EBD80E090E001960A
:1004E00027FFF5CF8EB508950F931F93CF93DF931A
:1004F0008C01EB016991662351F0C8010E946402EE
:100500008FE39CE90197F1F700C00000F3CFDF9182
:10051000CF911F910F910895CF93DF931F92CDB785
:10052000DEB762E4CE0101960E94C80062E870E086
:10053000CE0101960E940F018FEF8EBD80E090E00A
:100540003FEF2DB5883E43E0940721F48EB53EBDC4
:1005500080E090E0019627FFF4CF8EB50F90DF91F9
:10056000CF9108958FEF8EBD0DB407FEFDCF8EB5F0
:10057000089584B1876084B9239881E58CBD8DB5D9
:100580008E7F8DBD0895362FFB012E2F231B241740
:1005900050F4DC012D91CD012EBD0DB407FEFDCF31
:1005A0002EB52193F2CF0895282FFC018E2F821BA8
:1005B000861730F481918EBD0DB407FEFDCFF6CFC6
:1005C00008958EBD0DB407FEFDCF8EB508950E942F
:1005D000B9022D988AE18A95F1F700C02C9A089506
:1005E00080911C0208952C988AE18A95F1F700C049
:1005F00080E60E94E10280E00E94E1029AE19A9581
:10060000F1F700C02C9A08952C988AE18A95F1F7A9
:1006100000C08FEF0E94E1029AE19A95F1F700C0C5
:100620002C9A08950E940403982F907381E009F09A
:1006300080E008950E94040385FD04C084FD04C089
:100640008FEF089580E0089581E00895CF92DF92C2
:10065000FF920F931F93CF93DF931F92CDB7DEB717
:10066000F82E8B016C018C2D8F19841758F4F6012C
:1006700081916F0149830E94E102F80181938F010A
:100680004981F1CF0F90DF91CF911F910F91FF9092
:10069000DF90CF900895EF92FF921F93CF93DF9357
:1006A0001F92CDB7DEB7182F7C018E2D811B8617C8
:1006B00040F4F70181917F0169830E94E102698121
:1006C000F4CF0F90DF91CF911F91FF90EF9008959D
:1006D000CF93DF931F92CDB7DEB72C989AE19A950E
:1006E000F1F700C08F71806269830E94E102698125
:1006F000862F0E94E1028AE18A95F1F700C02C9AC8
:100700000F90DF91CF910895CF93DF93EC012C9858
:100710008AE18A95F1F700C081E60E94E1024091EA
:100720001C02BE01CE010E9426038AE18A95F1F7E0
:1007300000C02C9A60E487E0DF91CF910C946803AD
:100740002C988AE18A95F1F700C082EE0E94E102BE
:100750008AE18A95F1F700C02C9A60E787E00E9451
:1007600068032D986BE080E00E9468032D9A08953D
:1007700060931C02682F85E00E94680360E081E1BD
:100780000E94680360911C0282E10E94680360E09D
:1007900083E10E94680360E084E10E94680360E0F6
:1007A00085E10E94680360E086E10E94680366E0DC
:1007B00086E00E94680368E080E00E94680363E0CE
:1007C00081E00E94680363E082E00E9468036FE4B6
:1007D00084E00E94680360E08CE10E9468030C944E
:1007E000A00360E787E00E9468036AE080E00C9461
:1007F0006803CF93DF93EC012D980E94F1032C98AE
:100800008AE18A95F1F700C081EE0E94E1028AE157
:100810008A95F1F700C02C9A2C988AE18A95F1F715
:1008200000C080EA0E94E10260911C02CE010E9499
:100830004B038AE18A95F1F700C02C9A2D9ADF913B
:10084000CF9108952D9868E080E00C9468030F9391
:100850001F93CF93DF931F92CDB7DEB78B012C98F8
:100860009AE19A95F1F700C08F7149830E94E102E5
:100870004981B801C8010E9426038AE18A95F1F7EF
:1008800000C02C9A0F90DF91CF911F910F91089586
:10089000CF93DF931F92CDB7DEB741E0BE016F5F0C
:1008A0007F4F87E10E942704898181700F90DF913B
:1008B000CF9108950E94040386FD07C00E9448045A
:1008C00091E0882319F090E001C091E0892F08950C
:1008D000CF93DF931F92CDB7DEB741E0BE016F5FCC
:1008E0007F4F88E00E94270489818F700F90DF91ED
:1008F000CF9108950F931F93CF93DF931F92CDB79E
:10090000DEB78B012C989AE19A95F1F700C08F71B0
:10091000806249830E94E1024981642FC8010E94DC
:100920004B038AE18A95F1F700C02C9A0F90DF9172
:10093000CF911F910F9108952D9845E0BC018BE058
:100940000E947A042D9A0895CF93DF93EC0145E03D
:10095000BC018AE00E947A0445E0BE0180E1DF919B
:10096000CF910C947A04CF93DF931F92CDB7DEB76B
:10097000CE0101960E94F6010E94E7020E94040344
:100980000E94950064E082E00E94B80385E092E056
:100990000E94A4040E9404030E9495006AE072E091
:1009A000CE0101960E9433026AE072E0CE01019608
:1009B0000E9433026AE072E0CE0101960E94330287
:1009C00080E092E00E949C0485E092E00E94A404F2
:1009D0000E9404030E9495000E9404030E94950057
:1009E0000E945A04882351F086E192E00E94840319
:1009F0006FE072E0CE0101960E9433022FEF89E68C
:100A000098E1215080409040E1F700C00000E4CF21
:040A1000F894FFCF88
:100A1400E7E7E7E7E7D7D7D7D7D7686F6C61006216
:060A24006C616C616C00C6
:00000001FF
