:100000000C9472000C9493000C9493000C94930045
:100010000C9493000C9493000C9493000C94930014
:100020000C9493000C9493000C9493000C94930004
:100030000C9493000C9493000C9493000C949300F4
:100040000C9493000C9493000C9493000C949300E4
:100050000C9493000C9493000C9493000C949300D4
:100060000C9493000C9493000C9493000C949300C4
:100070000C9493000C9493000C9493000C949300B4
:100080000C9493000C9493000C9493000C949300A4
:100090000C9493000C9493000C9493000C94930094
:1000A0000C9493000C9493000C9493000C94930084
:1000B0000C9493000C9493000C9493000C94930074
:1000C0000C9493000C9493000C9493000C94930064
:1000D0000C9493000C9493000C9493000C94930054
:1000E0000C94930011241FBECFEFD1E2DEBFCDBF31
:1000F00000E00CBF12E0A0E0B2E0ECE5FFE000E0C1
:100100000BBF02C007900D92AA30B107D9F722E0C9
:10011000AAE0B2E001C01D92A733B207E1F70E9446
:10012000AB060C94AC070C940000249AE0EBF0E0D2
:100130008081836080838081806C8083E1EBF0E04C
:10014000808181608083089580E480937C0087E8CB
:1001500080937A00089590917C008770987F892B16
:1001600080937C0080917A00806480937A008091F3
:100170007A0086FDFCCF80917800909179000895F7
:10018000FC0160830895FC0180818234E1F562FF07
:100190000BC083B1082E000C990B80959095892F88
:1001A000881F8827881F31C063FF06C083B18295EE
:1001B0008695869583701EC064FF05C083B18295C5
:1001C0008695877017C065FF04C083B182958F70D4
:1001D00011C066FF05C083B18695869586950AC0D5
:1001E00067FF04C083B18695869504C070FF04C084
:1001F00083B1869591E004C071FF06C093B181E0A0
:100200008927817002C0089580E090E00895FC0184
:100210009B012170332760FF21C080818234F1F47B
:1002200062FF02C0279A1AC063FF02C0269A16C056
:1002300064FF02C0259A12C065FF02C0249A0EC056
:1002400066FF02C0239A0AC067FF02C0229A06C056
:1002500070FF02C0219A02C071FD209ACB0182700A
:10026000992761FF6EC040814234F9F462FF02C0F9
:1002700027981BC063FF02C0269817C064FF02C006
:10028000259813C065FF02C024980FC066FF02C006
:1002900023980BC067FF02C0229807C070FF02C0FE
:1002A000219803C071FF0DC02098232B51F02081AD
:1002B000243409F04DC062FF28C0579A892B09F4F5
:1002C00047C08081843409F043C062FF02C0579860
:1002D000089563FF02C05698089564FF02C05598C0
:1002E000089565FF02C05498089566FF02C05398B0
:1002F000089567FF02C05298089570FF02C0519898
:10030000089571FF25C05098089563FF02C0569A62
:10031000D5CF64FF02C0559AD1CF65FF02C0549A71
:10032000CDCF66FF02C0539AC9CF67FF02C0529A71
:10033000C5CF70FF02C0519AC1CF71FF06C0509A5D
:10034000BDCF232B09F0B3CF0895892B09F0BDCF82
:100350000895FC018081823409F03FC062FF06C02D
:1003600061FF02C02F9A08952F98089563FF06C079
:1003700061FF02C02E9A08952E98089564FF06C06A
:1003800061FF02C02D9A08952D98089565FF06C05B
:1003900061FF02C02C9A08952C98089566FF06C04C
:1003A00061FF02C02B9A08952B98089567FF06C03D
:1003B00061FF02C02A9A08952A98089570FF06C026
:1003C00061FF02C0299A08952998089571FF05C018
:1003D00061FF02C0289A089528980895CF93DF936B
:1003E0001F921F92CDB7DEB765E4CE0102960E9440
:1003F000C00065E4CE0101960E94C00062E072E098
:10040000CE0102960E94070161E071E0CE010196E3
:100410000E9407011092C00088E98093C10086E025
:100420008093C20087E690E09093C5008093C4005B
:100430000F900F90DF91CF9108958091C00085FFBC
:10044000FCCF6093C60008958091C00085FFFCCF6B
:100450006093C60008950F931F93CF93DF938C0191
:10046000EB016991662321F0C8010E941D02F9CFBA
:10047000DF91CF911F910F9108958091C00087FF68
:1004800003C08091C600089580E008956130710531
:1004900031F484B1876084B9239881ED05C0672B5E
:1004A00031F42398249A80E48CBD81E08DBD0895B9
:1004B0006EBD0DB407FEFDCF8EB508956EBD8DB532
:1004C0008EB50895FB018191BF01882351F08EBD47
:1004D0008DB58EB58FE39CE90197F1F700C0000060
:1004E000F1CF08958FEF8EBD8DB58EB508958FEF46
:1004F0008EBD8DB58EB50895CF93DF931F921F9259
:10050000CDB7DEB7CE0102960E94EE0161E070E049
:10051000CE0101960E9446020F900F90DF91CF917D
:100520000895E1E0F1E0808180668083E2E0F1E01F
:1005300080818064808380818F7D8083089580E1C5
:1005400008950F931F93CF93DF938C01C2E0D1E006
:1005500098819F7D98838AE18A95F1F700C060E6D3
:10056000C8010E94580260E0C8010E9458029AE146
:100570009A95F1F700C0988190629883DF91CF91AE
:100580001F910F910895CF93DF939C01C2E0D1E0BA
:1005900098819F7D98838AE18A95F1F700C06FEF7B
:1005A000C9010E9458029AE19A95F1F700C098811A
:1005B00090629883DF91CF9108950E94C302982F93
:1005C000907381E009F080E008950E94C30285FDE8
:1005D00004C084FD04C08FEF089580E0089581E099
:1005E0000895AF92BF92CF92DF92FF920F931F9325
:1005F000CF93DF931F92CDB7DEB76C01F62E8A0141
:100600005B019A2D9F19921760F4F50161915F01CA
:10061000C60129830E945802F80181938F01298124
:10062000F0CF0F90DF91CF911F910F91FF90DF904E
:10063000CF90BF90AF900895CF92DF92EF92FF924C
:100640001F93CF93DF931F92CDB7DEB77C01162F98
:100650006B019C2D911B941748F4F60161916F0179
:10066000C70149830E9458024981F3CF0F90DF915F
:10067000CF911F91FF90EF90DF90CF900895EF9270
:10068000FF920F931F93CF93DF931F92CDB7DEB7E7
:100690008C0182E0E82EFF24F394F70190819F7D86
:1006A0009083FAE1FA95F1F700C06F716062C801BA
:1006B00049830E9458028FEC97E00197F1F700C040
:1006C00000004981642FC8010E9458029AE19A955E
:1006D000F1F700C0F7018081806280830F90DF9185
:1006E000CF911F910F91FF90EF900895EF92FF929D
:1006F0000F931F93CF93DF938C017B01C2E0D1E076
:1007000088818F7D88838AE18A95F1F700C061E650
:10071000C8010E94580220E1A701B701C8010E9448
:10072000F1028AE18A95F1F700C0888180628883AE
:1007300040E467E0C801DF91CF911F910F91FF90D6
:10074000EF900C943F030F931F93CF93DF938C0193
:10075000C2E0D1E088818F7D88838AE18A95F1F7B4
:1007600000C062EEC8010E9458028AE18A95F1F742
:1007700000C088818062888340E767E0C8010E94EA
:100780003F0388818F7B88834BE060E0C8010E9433
:100790003F03888180648883DF91CF911F910F91FF
:1007A0000895CF93DF93EC018FEC97E00197F1F779
:1007B00000C0000041E061E0CE010E943F039AE1E9
:1007C0009A95F1F700C04FE264E0CE010E943F032A
:1007D0008AE18A95F1F700C041E062E0CE010E9413
:1007E0003F039AE19A95F1F700C043E063E0CE0140
:1007F0000E943F038AE18A95F1F700C041E065E07D
:10080000CE010E943F039AE19A95F1F700C047E0BC
:1008100066E0CE010E943F038AE18A95F1F700C0AD
:1008200040E161E1CE010E943F039AE19A95F1F720
:1008300000C0CE01DF91CF910C94A303CF93DF933F
:10084000EC0140E767E00E943F034AE060E0CE0130
:10085000DF91CF910C943F03EF92FF920F931F9380
:10086000CF93DF938C017B01C2E0D1E088818F7B45
:100870008883C8010E941E0488818F7D88838AE155
:100880008A95F1F700C061EEC8010E9458028AE122
:100890008A95F1F700C088818062888388818F7D86
:1008A00088838AE18A95F1F700C060EAC8010E9456
:1008B000580240E1B701C8010E941C038AE18A95F1
:1008C000F1F700C088818062888388818064888392
:1008D000DF91CF911F910F91FF90EF900895E2E08B
:1008E000F1E020812F7B208348E060E00C943F03FF
:1008F000CF92DF92EF92FF920F931F93CF93DF93EC
:100900001F92CDB7DEB78C017A0182E0C82EDD24BC
:10091000D394F60190819F7D9083FAE1FA95F1F7E7
:1009200000C06F71C80129830E9458022981A70164
:10093000B701C8010E94F1028AE18A95F1F700C06F
:10094000F6018081806280830F90DF91CF911F91AB
:100950000F91FF90EF90DF90CF900895CF93DF93AA
:100960001F92CDB7DEB721E0AE014F5F5F4F67E169
:100970000E947804898181700F90DF91CF91089552
:10098000CF93DF93EC010E94C30286FD08C0CE0125
:100990000E94AE0491E0882319F090E001C091E03C
:1009A000892FDF91CF910895CF93DF931F92CDB719
:1009B000DEB721E0AE014F5F5F4F68E00E94780430
:1009C00089818F700F90DF91CF910895CF92DF9240
:1009D000EF92FF920F931F93CF93DF931F92CDB7A8
:1009E000DEB78C017A0182E0C82EDD24D394F601B3
:1009F00090819F7D9083FAE1FA95F1F700C06F71C5
:100A00006062C80129830E9458022981422FB701E0
:100A1000C8010E941C038AE18A95F1F700C0F60123
:100A20008081806280830F90DF91CF911F910F9121
:100A3000FF90EF90DF90CF900895CF93DF93AB01BD
:100A4000C2E0D1E028812F7B288325E06BE00E9463
:100A5000E604888180648883DF91CF9108950F93A5
:100A60001F93CF93DF93EC018B0125E0AB016AE08C
:100A70000E94E60425E0A80160E1CE01DF91CF915C
:100A80001F910F910C94E604EF92FF920F931F9326
:100A9000CF93DF931F92CDB7DEB7E82ECE0101963C
:100AA0000E94EE0107E010E00E2C000CFF08C701C9
:100AB000002E02C0959587950A94E2F780FF02C048
:100AC00061E301C060E3CE0101960E941D02015066
:100AD000110968F76AE0CE0101960E941D020F908D
:100AE000DF91CF911F910F91FF90EF900895CF92DA
:100AF000DF92EF92FF92CF93DF936115710581052D
:100B00009105B1F0C0E0D0E02AE0C22ED12CE12C5A
:100B1000F12C161617061806190644F4A7019601BB
:100B20000E944A07CA01B9012196F3CFCE0102C043
:100B300081E090E0DF91CF91FF90EF90DF90CF9038
:100B400008953F924F925F926F927F928F929F9201
:100B5000AF92BF92CF92DF92EF92FF920F931F93CB
:100B6000CF93DF93962E872E782E692E12161306BA
:100B7000E4F5890101501109EA015801C62ED72E6A
:100B80008AE0382EE0E0F0E021E030E040E050E0A4
:100B9000EA15FB0544F4AAE0B0E00E9470079B014F
:100BA000AC013196F5CF2601692D782D872D962D34
:100BB0000E944A0769017A01A016B10619F480E380
:100BC000820F09C0349CC001359C900D1124281B54
:100BD000390BC901805D888331E0A31AB1082196E1
:100BE0008FEFA816B80671F604C0232B11F4FA0192
:100BF0006083DF91CF911F910F91FF90EF90DF9075
:100C0000CF90BF90AF909F908F907F906F905F90AC
:100C10004F903F9008958F929F92AF92BF92CF9244
:100C2000DF92EF92FF920F931F93CF93DF93CDB795
:100C3000DEB727970FB6F894DEBF0FBECDBF6C01AD
:100C40006AE0CE0107960E941D02760187010C1909
:100C50001D095701F70161917F01603229F0CE0132
:100C600007960E941D02F2CF6AE0CE0107960E940D
:100C70001D02F501319780E090E04AE050E0C12C80
:100C8000D12C7601AAE08017910751F120810097BD
:100C900051F4622F220F770B605371096B01770FAC
:100CA000EE08FF081AC0022E000C330B2053310946
:100CB000249F4001259F900C349F900C1124092CF7
:100CC000000CAA08BB08C80CD91CEA1CFB1C9A0122
:100CD000A29FA001A39F500D112431970196D3CF5D
:100CE0006AE0CE0107960E941D02C701B6010E946C
:100CF00077054C019C018E010F5F1F4FA801C701B2
:100D0000B6010E94A1055801C501801B910B8815F1
:100D1000990544F4F50161915F01CE0107960E94A7
:100D20001D02F2CF6AE0CE0107960E941D02C601A5
:100D300027960FB6F894DEBF0FBECDBFDF91CF91DF
:100D40001F910F91FF90EF90DF90CF90BF90AF90E9
:100D50009F908F900895CF93DF9300D0CDB7DEB7EB
:100D6000CE0101960E947C02CE0103960E94EE0104
:100D7000CE0101960E9491020E949500CE0101963B
:100D80000E94C3020E944405CE0101960E94D10335
:100D9000CE0101960E94C3020E94440560E072E009
:100DA000CE0101960E941D0565E072E0CE0101961C
:100DB0000E942F05CE0101960E94C3020E944405A5
:100DC00088248A9483E0982EA12CB12CCE01019620
:100DD0000E94C0048823D1F364E272E0CE01019640
:100DE0000E9476036AE0CE0103960E941D0204E28F
:100DF00012E07801D7016D917D01CE0103960E942A
:100E00001D02B1E3EB16B2E0FB06A1F7EAE0F2E067
:100E1000D8018D918D018193B2E009321B07C1F792
:100E20008AE092E00E940B062FEF30E0DC010E9486
:100E30006907A50194010E944A072093200230937C
:100E40002102409322025093230280911C02909130
:100E50001D02A0911E02B0911F02281739074A07F0
:100E60005B0711F02093B300809120029091210242
:100E7000A0912202B091230280931C0290931D0244
:100E8000A0931E02B0931F026AE0CE0103960E9457
:100E90001D029CCF052E97FB1EF400940E94610753
:100EA00057FD07D00E947B0707FC03D04EF40C943B
:100EB000610750954095309521953F4F4F4F5F4FBB
:100EC000089590958095709561957F4F8F4F9F4FB6
:100ED00008950E949D07B7FF0895821B930B089504
:100EE0000E949D07A59F900DB49F900DA49F800D1B
:100EF000911D11240895A1E21A2EAA1BBB1BFD010E
:100F00000DC0AA1FBB1FEE1FFF1FA217B307E407E8
:100F1000F50720F0A21BB30BE40BF50B661F771F40
:100F2000881F991F1A9469F7609570958095909520
:100F30009B01AC01BD01CF010895A29FB001B39FF9
:100F4000C001A39F700D811D1124911DB29F700DD2
:0C0F5000811D1124911D0895F894FFCF1D
:0A0F5C000000000001000000000189
:00000001FF
