:100000000C9472000C948B000C948B000C948B005D
:100010000C948B000C948B000C948B000C948B0034
:100020000C948B000C948B000C948B000C948B0024
:100030000C948B000C948B000C948B000C948B0014
:100040000C948B000C948B000C948B000C948B0004
:100050000C948B000C948B000C948B000C948B00F4
:100060000C948B000C948B000C948B000C948B00E4
:100070000C948B000C948B000C948B000C948B00D4
:100080000C948B000C948B000C948B000C948B00C4
:100090000C948B000C948B000C948B000C948B00B4
:1000A0000C948B000C948B000C948B000C948B00A4
:1000B0000C948B000C948B000C948B000C948B0094
:1000C0000C948B000C948B000C948B000C948B0084
:1000D0000C948B000C948B000C948B000C948B0074
:1000E0000C948B0011241FBECFEFD1E2DEBFCDBF39
:1000F00000E00CBF12E0A0E0B2E0E0E9F6E000E0D2
:100100000BBF02C007900D92A031B107D9F70E9432
:1001100021030C9446030C940000FC0160830895B5
:10012000FC018081823421F562FF02C083B127C0C7
:1001300063FF02C083B131C064FF06C083B1829502
:100140008695877091E054C065FF02C083B133C0CB
:1001500066FF02C083B136C067FF02C083B13AC0F8
:1001600070FF02C083B13DC071FF46C093B13FC074
:10017000883409F040C062FF0CC080910001082E55
:10018000000C990B80959095892F881F8827881FD0
:1001900034C063FF07C080910001829586958695E3
:1001A0008370D0CF64FF03C080910001C8CF65FF8A
:1001B00005C08091000182958F70C4CF66FF06C094
:1001C00080910001869586958695BCCF67FF05C016
:1001D0008091000186958695B5CF70FF04C080910F
:1001E00000018695AFCF71FF07C09091000181E0BB
:1001F0008927817002C0089580E090E00895FC0195
:1002000060FF76C080818534F1F462FF02C06F9A8E
:100210001AC063FF02C06E9A16C064FF02C06D9AD6
:1002200012C065FF02C06C9A0EC066FF02C06B9AD6
:100230000AC067FF02C06A9A06C070FF02C0699ACE
:1002400002C071FD689A8081883489F562FF04C01C
:1002500080910101806829C063FF04C08091010181
:10026000806423C064FF04C08091010180621DC0CE
:1002700065FF04C080910101806117C066FF04C062
:1002800080910101886011C067FF04C08091010165
:1002900084600BC070FF04C080910101826005C0C2
:1002A00071FF05C08091010181608093010180810F
:1002B0008234F1F462FF02C0279A1AC063FF02C0C1
:1002C000269A16C064FF02C0259A12C065FF02C0BC
:1002D000249A0EC066FF02C0239A0AC067FF02C0BC
:1002E000229A06C070FF02C0219A02C071FD209AB6
:1002F00061FF76C080818534F1F462FF02C06F989F
:100300001AC063FF02C06E9816C064FF02C06D98E9
:1003100012C065FF02C06C980EC066FF02C06B98E9
:100320000AC067FF02C06A9806C070FF02C06998E1
:1003300002C071FD68988081883489F562FF04C02D
:10034000809101018F7729C063FF04C08091010172
:100350008F7B23C064FF04C0809101018F7D1DC08D
:1003600065FF04C0809101018F7E17C066FF04C045
:1003700080910101877F11C067FF04C08091010156
:100380008B7F0BC070FF04C0809101018D7F05C081
:1003900071FF05C0809101018E7F809301018081F2
:1003A0008234F1F462FF02C02798089563FF02C00F
:1003B0002698089564FF02C02598089565FF02C03D
:1003C0002498089566FF02C02398089567FF02C02D
:1003D0002298089570FF02C02198089571FD209819
:1003E0000895FC018081883409F053C062FF08C081
:1003F0008091020161FF02C0806829C08F7727C009
:1004000063FF08C08091020161FF02C080641FC0C9
:100410008F7B1DC064FF08C08091020161FF02C094
:10042000806215C08F7D13C065FF08C080910201F6
:1004300061FF02C080610BC08F7E09C066FF0AC0E9
:100440008091020161FF02C0886001C0877F8093B4
:1004500002011FC067FF08C09091020161FF02C046
:10046000946015C09B7F13C070FF08C0909102017B
:1004700061FF02C092600BC09D7F09C071FF09C07F
:100480009091020161FF02C0916001C09E7F909334
:1004900002018081823409F03FC062FF06C061FF23
:1004A00002C02F9A08952F98089563FF06C061FF38
:1004B00002C02E9A08952E98089564FF06C061FF29
:1004C00002C02D9A08952D98089565FF06C061FF1A
:1004D00002C02C9A08952C98089566FF06C061FF0B
:1004E00002C02B9A08952B98089567FF06C061FFFC
:1004F00002C02A9A08952A98089570FF06C061FFE5
:1005000002C0299A08952998089571FF05C061FFD6
:1005100002C0289A089528980895CF93DF931F92D8
:100520001F92CDB7DEB765E4CE0102960E948D0022
:1005300065E4CE0101960E948D0062E072E0CE017A
:1005400002960E94FF0061E071E0CE0101960E94D8
:10055000FF001092C00088E98093C10086E080937C
:10056000C20087E690E09093C5008093C4000F908E
:100570000F90DF91CF9108958091C00085FFFCCF4F
:100580006093C60008950F931F93CF93DF938C0160
:10059000EB016991662321F0C8010E94BC02F9CFEA
:1005A000DF91CF911F910F9108958091C00087FF37
:1005B00003C08091C600089580E0089587E084B963
:1005C00084E0660F771F8A95E1F761666CBD089538
:1005D0001F93CF93DF931F92CDB7DEB7162F62E440
:1005E000CE0101960E948D0061E072E0CE0101967D
:1005F0000E94F1011EBD0EB407FEFDCF62E072E065
:10060000CE0101960E94F1010F90DF91CF911F91D1
:1006100008950F931F93CF93DF938C01EB016991A2
:10062000662321F0C8010E94E802F9CFDF91CF9143
:100630001F910F9108956EBD0DB407FEFDCF8EB5CD
:100640000895CF93DF931F921F92CDB7DEB762E478
:10065000CE0101960E948D0065E070E0CE0101960A
:100660000E94FF00CE0102960E948D0260E072E0BF
:10067000CE0102960E94C302CE0102960E94D502CC
:10068000682FCE0102960E94BC02F6CFF894FFCFED
:10069000686F6C6120636F6D6F20657374617300A8
:00000001FF
