:100000000C9434000C9451000C9451000C94510049
:100010000C9451000C9451000C9451000C9451001C
:100020000C9451000C9451000C9451000C9451000C
:100030000C9451000C9451000C9451000C945100FC
:100040000C9451000C9451000C9451000C945100EC
:100050000C9451000C9451000C9451000C945100DC
:100060000C9451000C94510011241FBECFEFD8E026
:10007000DEBFCDBF11E0A0E0B1E0EEE0FDE002C0E8
:1000800005900D92A835B107D9F721E0A8E5B1E0B8
:1000900001C01D92AA35B207E1F70E946C050C94CD
:1000A00085060C940000089580E480937C0087E826
:1000B00080937A00089590917C008770987F892BB7
:1000C00080937C0080917A00806480937A00809194
:1000D0007A0086FDFCCF8091780090917900089598
:1000E000FC0160830895FC0180818234E1F562FFA8
:1000F0000BC083B1082E000C990B80959095892F29
:10010000881F8827881F31C063FF06C083B182958E
:100110008695869583701EC064FF05C083B1829565
:100120008695877017C065FF04C083B182958F7074
:1001300011C066FF05C083B18695869586950AC075
:1001400067FF04C083B18695869504C070FF04C024
:1001500083B1869591E004C071FF06C093B181E040
:100160008927817002C0089580E090E00895FC0125
:100170009B012170332760FF21C080818234F1F41C
:1001800062FF02C0279A1AC063FF02C0269A16C0F7
:1001900064FF02C0259A12C065FF02C0249A0EC0F7
:1001A00066FF02C0239A0AC067FF02C0229A06C0F7
:1001B00070FF02C0219A02C071FD209ACB018270AB
:1001C000992761FF6EC040814234F9F462FF02C09A
:1001D00027981BC063FF02C0269817C064FF02C0A7
:1001E000259813C065FF02C024980FC066FF02C0A7
:1001F00023980BC067FF02C0229807C070FF02C09F
:10020000219803C071FF0DC02098232B51F020814D
:10021000243409F04DC062FF28C0579A892B09F495
:1002200047C08081843409F043C062FF02C0579800
:10023000089563FF02C05698089564FF02C0559860
:10024000089565FF02C05498089566FF02C0539850
:10025000089567FF02C05298089570FF02C0519838
:10026000089571FF25C05098089563FF02C0569A03
:10027000D5CF64FF02C0559AD1CF65FF02C0549A12
:10028000CDCF66FF02C0539AC9CF67FF02C0529A12
:10029000C5CF70FF02C0519AC1CF71FF06C0509AFE
:1002A000BDCF232B09F0B3CF0895892B09F0BDCF23
:1002B0000895FC018081823409F03FC062FF06C0CE
:1002C00061FF02C02F9A08952F98089563FF06C01A
:1002D00061FF02C02E9A08952E98089564FF06C00B
:1002E00061FF02C02D9A08952D98089565FF06C0FC
:1002F00061FF02C02C9A08952C98089566FF06C0ED
:1003000061FF02C02B9A08952B98089567FF06C0DD
:1003100061FF02C02A9A08952A98089570FF06C0C6
:1003200061FF02C0299A08952998089571FF05C0B8
:1003300061FF02C0289A089528980895CF93DF930B
:1003400000D0CDB7DEB765E4CE0102960E94700002
:1003500065E4CE0101960E94700062E072E0CE0179
:1003600002960E94B70061E071E0CE0101960E9402
:10037000B7001092C00088E98093C10086E08093A6
:10038000C20087E690E09093C5008093C4000F9070
:100390000F90DF91CF9108958091C00085FFFCCF31
:1003A0006093C60008958091C00085FFFCCF6093E4
:1003B000C60008950F931F93CF93DF938C01EB0139
:1003C0006991662321F0C8010E94CC01F9CFDF9129
:1003D000CF911F910F9108958091C00087FF03C0B6
:1003E0008091C600089580E008956130710531F470
:1003F00084B18C6284B9249881E505C0672B31F4FF
:100400002398249A81E48CBD81E08DBD0895CF931B
:10041000DF9300D0CDB7DEB7CE0101966A830E948C
:100420009E016A816EBD0DB407FEFDCF8EB50F90A3
:100430000F90DF91CF9108956EBD8DB58EB5089563
:10044000FB018191BF01882351F08EBD8DB58EB522
:100450008FE39CE90197F1F700C00000F1CF089508
:100460008FEF8EBD8DB58EB508958FEF8EBD8DB596
:100470008EB50895CF93DF9300D0CDB7DEB7CE0110
:1004800002960E949E0161E070E0CE0101960E94FA
:10049000F5010F900F90DF91CF910895209A579A10
:1004A0005F9A2898089580E10895CF93DF93EC0137
:1004B000289860E60E94070260E0CE010E940702D1
:1004C000289ADF91CF91089528986FEF0E94070234
:1004D000289A08950E946402982F907381E009F091
:1004E00080E008950E94640285FD04C084FD04C07C
:1004F0008FEF089580E0089581E00895AF92BF9254
:10050000CF92DF92FF920F931F93CF93DF931F92AF
:10051000CDB7DEB76C01F62E8A015B019A2D9F19CB
:10052000921760F4F50161915F01C60129830E9471
:100530000702F80181938F012981F0CF0F90DF919D
:10054000CF911F910F91FF90DF90CF90BF90AF9010
:100550000895CF92DF92EF92FF921F93CF93DF9394
:100560001F92CDB7DEB77C01162F6B019C2D911B1E
:10057000941748F4F60161916F01C70149830E9405
:1005800007024981F3CF0F90DF91CF911F91FF9028
:10059000EF90DF90CF9008950F931F93CF93DF9349
:1005A000EC018B015F98289861EE0E940702289A5F
:1005B000289860EACE010E94070240E1B801CE010E
:1005C0000E94A902289A5F9ADF91CF911F910F9103
:1005D00008950F931F93CF93DF931F92CDB7DEB78C
:1005E0008C0128986F71606249830E9407024981DB
:1005F000642FC8010E940702289A0F90DF91CF91C3
:100600001F910F9108950F931F93CF93DF93EC01E8
:100610008B01289861E60E94070220E1A801B80139
:10062000CE010E947E02289A40E467E0CE01DF916D
:10063000CF911F910F910C94E902CF93DF93EC01BE
:10064000289862EE0E940702289A40E767E0CE01F0
:100650000E94E9025F984BE060E0CE010E94E9024F
:100660005F9ADF91CF910895CF93DF93EC0141E042
:1006700061E00E94E9024FE264E0CE010E94E902DB
:1006800041E062E0CE010E94E90243E063E0CE0176
:100690000E94E90241E065E0CE010E94E90247E0E4
:1006A00066E0CE010E94E90240E161E1CE010E94D4
:1006B000E902CE01DF91CF910C941D03CF93DF931C
:1006C000EC0140E767E00E94E9024AE060E0CE0109
:1006D000DF91CF910C94E9025F9848E060E00C94C0
:1006E000E902EF92FF920F931F93CF93DF931F9234
:1006F000CDB7DEB77C018A0128986F7129830E94EB
:1007000007022981A801B801C7010E947E02289A28
:100710000F90DF91CF911F910F91FF90EF9008956F
:10072000CF93DF931F92CDB7DEB721E0AE014F5FCD
:100730005F4F67E10E947103898181700F90DF91A3
:10074000CF910895CF93DF93EC010E94640286FD60
:1007500008C0CE010E94900391E0882319F090E038
:1007600001C091E0892FDF91CF910895CF93DF935E
:100770001F92CDB7DEB721E0AE014F5F5F4F68E05B
:100780000E94710389818F700F90DF91CF9108953E
:10079000EF92FF920F931F93CF93DF931F92CDB7EA
:1007A000DEB77C018A0128986F71606229830E94FC
:1007B00007022981422FB801C7010E94A902289A85
:1007C0000F90DF91CF911F910F91FF90EF900895BF
:1007D000AB015F9825E06BE00E94C8035F9A089523
:1007E0000F931F93CF93DF93EC018B0125E0AB01B7
:1007F0006AE00E94C80325E0A80160E1CE01DF9114
:10080000CF911F910F910C94C803EF92FF920F9319
:100810001F93CF93DF931F92CDB7DEB7E82ECE01A3
:1008200001960E949E0107E010E00E2C000CFF08CC
:10083000C701002E02C0959587950A94E2F780FFC4
:1008400002C061E301C060E3CE0101960E94CC01C9
:100850000150110968F76AE0CE0101960E94CC01AF
:100860000F90DF91CF911F910F91FF90EF9008951E
:10087000CF92DF92EF92FF92CF93DF9361157105D4
:1008800081059105B1F0C0E0D0E02AE0C22ED12C64
:10089000E12CF12C161617061806190644F4A701C8
:1008A00096010E942A06CA01B9012196F3CFCE0112
:1008B00002C081E090E0DF91CF91FF90EF90DF9058
:1008C000CF9008953F924F925F926F927F928F9256
:1008D0009F92AF92BF92CF92DF92EF92FF920F93CF
:1008E0001F93CF93DF93962E872E782E692E1216A4
:1008F0001306E4F5890101501109EA015801C62ED9
:10090000D72E8AE0382EE0E0F0E021E030E040E051
:1009100050E0EA15FB0544F4AAE0B0E00E94490665
:100920009B01AC013196F5CF2601692D782D872DDD
:10093000962D0E942A0669017A01A016B10619F4C3
:1009400080E3820F09C0349CC001359C900D1124B6
:10095000281B390BC901805D888331E0A31AB108D7
:1009600021968FEFA816B80671F604C0232B11F458
:10097000FA016083DF91CF911F910F91FF90EF906B
:10098000DF90CF90BF90AF909F908F907F906F90AF
:100990005F904F903F9008958F929F92AF92BF9239
:1009A000CF92DF92EF92FF920F931F93CF93DF933B
:1009B000CDB7DEB727970FB6F894DEBF0FBECDBF19
:1009C0006C016AE0CE0107960E94CC017601870196
:1009D0000C191D095701F70161917F01603229F05F
:1009E000CE0107960E94CC01F2CF6AE0CE010796B5
:1009F0000E94CC01F501319780E090E04AE050E0A0
:100A0000C12CD12C7601AAE08017910751F12081E9
:100A1000009751F4622F220F770B605371096B011D
:100A2000770FEE08FF081AC0022E000C330B20537C
:100A30003109249F4001259F900C349F900C112474
:100A4000092C000CAA08BB08C80CD91CEA1CFB1C0A
:100A50009A01A29FA001A39F500D112431970196E6
:100A6000D3CF6AE0CE0107960E94CC01C701B60140
:100A70000E9438044C019C018E010F5F1F4FA8019A
:100A8000C701B6010E9462045801C501801B910B89
:100A90008815990544F4F50161915F01CE0107962F
:100AA0000E94CC01F2CF6AE0CE0107960E94CC01F1
:100AB000C60127960FB6F894DEBF0FBECDBFDF91FB
:100AC000CF911F910F91FF90EF90DF90CF90BF904B
:100AD000AF909F908F900895CF93DF9300D000D078
:100AE000CDB7DEB7529A87E090E02FEF39E648E1C4
:100AF000215030404040E1F700C000005A982FEFED
:100B000039E648E1215030404040E1F700C00000A4
:100B10005A9A019751F75A980E945400789461E0CC
:100B200070E0CE0103960E94F501CE0101960E946D
:100B30003A02CE0104960E949E01CE0101960E94C7
:100B40004E02CE0101960E94340360E071E0CE01B6
:100B500001960E94E80365E071E0CE0101960E94D3
:100B6000F00367E171E0CE0104960E94DA01CE0144
:100B700001960E945E0385E00E945B00BC0180E05C
:100B800090E00E9438046AE071E0CE0101960E9474
:100B9000CC02CE0101960E9472028093590160E35B
:100BA000680FCE0104960E94CC016AE0CE01049643
:100BB0000E94CC018091590181110EC06FE271E059
:100BC000CE0104960E94DA018FEF90E722E0815077
:100BD00090402040E1F70FC0813079F467E471E084
:100BE000CE0104960E94DA013FEF40E782E03150E7
:100BF00040408040E1F700C00000CE0101960E9415
:100C0000B60380935901529A87E090E02FEF30E7C6
:100C100042E0215030404040E1F700C000005A98C7
:100C20002FEF30E742E0215030404040E1F700C074
:100C300000005A9A019751F78FEF99E628E1815009
:100C400090402040E1F700C00000CE0101960E94D4
:100C50006C038DCF052E97FB1EF400940E94410675
:100C600057FD07D00E94540607FC03D04EF40C94A5
:100C7000410650954095309521953F4F4F4F5F4F1E
:100C8000089590958095709561957F4F8F4F9F4FF8
:100C900008950E947606A59F900DB49F900DA49F85
:100CA000800D911D11240895A1E21A2EAA1BBB1BD1
:100CB000FD010DC0AA1FBB1FEE1FFF1FA217B30728
:100CC000E407F50720F0A21BB30BE40BF50B661F3E
:100CD000771F881F991F1A9469F760957095809502
:100CE00090959B01AC01BD01CF010895A29FB00179
:100CF000B39FC001A39F700D811D1124911DB29F50
:0E0D0000700D811D1124911D0895F894FFCFF0
:100D0E0000000000010000000001313233342020C9
:100D1E0020202020202020656D70657A616E646F22
:100D2E00206C6120747261736D6963696F6E0073FC
:100D3E006520656E76696F206269656E206C612034
:100D4E007365C3B1616C006573746120656E20704C
:080D5E00726F6365736F000002
:00000001FF
