:100000000C9434000C9451000C9451000C94510049
:100010000C9451000C9451000C9451000C9451001C
:100020000C9451000C9451000C9451000C9451000C
:100030000C9451000C9451000C9451000C945100FC
:100040000C9451000C9451000C9451000C945100EC
:100050000C9451000C9451000C9451000C945100DC
:100060000C9451000C94510011241FBECFEFD8E026
:10007000DEBFCDBF11E0A0E0B1E0E4E4F9E002C0F2
:1000800005900D92AA30B107D9F721E0AAE0B1E0BE
:1000900001C01D92A031B207E1F70E947B040C94CD
:1000A000A0040C940000EF92FF920F931F93CF9344
:1000B000DF931F92CDB7DEB7E82ECE0101960E94E6
:1000C000B40107E010E00E2C000CFF08C701002E61
:1000D00002C0959587950A94E2F780FF02C061E31C
:1000E00001C060E3CE0101960E94E20101501109B6
:1000F00068F76AE0CE0101960E94E2010F90DF915D
:10010000CF911F910F91FF90EF900895FC016083B4
:100110000895FC0180818234E1F562FF0BC083B158
:10012000082E000C990B80959095892F881F8827A1
:10013000881F31C063FF06C083B18295869586957E
:1001400083701EC064FF05C083B182958695877059
:1001500017C065FF04C083B182958F7011C066FF20
:1001600005C083B18695869586950AC067FF04C051
:1001700083B18695869504C070FF04C083B18695CF
:1001800091E004C071FF06C093B181E089278170BE
:1001900002C0089580E090E00895FC019B01217069
:1001A000332760FF21C080818234F1F462FF02C0F6
:1001B000279A1AC063FF02C0269A16C064FF02C0C5
:1001C000259A12C065FF02C0249A0EC066FF02C0C5
:1001D000239A0AC067FF02C0229A06C070FF02C0BD
:1001E000219A02C071FD209ACB018270992761FF8C
:1001F0006EC040814234F9F462FF02C027981BC0F0
:1002000063FF02C0269817C064FF02C0259813C080
:1002100065FF02C024980FC066FF02C023980BC080
:1002200067FF02C0229807C070FF02C0219803C078
:1002300071FF0DC02098232B51F02081243409F048
:100240004DC062FF28C0579A892B09F447C08081AE
:10025000843409F043C062FF02C05798089563FFD9
:1002600002C05698089564FF02C05598089565FF2E
:1002700002C05498089566FF02C05398089567FF1E
:1002800002C05298089570FF02C05198089571FFFE
:1002900025C05098089563FF02C0569AD5CF64FFD9
:1002A00002C0559AD1CF65FF02C0549ACDCF66FFE8
:1002B00002C0539AC9CF67FF02C0529AC5CF70FFE0
:1002C00002C0519AC1CF71FF06C0509ABDCF232BF7
:1002D00009F0B3CF0895892B09F0BDCF0895FC0133
:1002E0008081823409F03FC062FF06C061FF02C016
:1002F0002F9A08952F98089563FF06C061FF02C0EA
:100300002E9A08952E98089564FF06C061FF02C0DA
:100310002D9A08952D98089565FF06C061FF02C0CB
:100320002C9A08952C98089566FF06C061FF02C0BC
:100330002B9A08952B98089567FF06C061FF02C0AD
:100340002A9A08952A98089570FF06C061FF02C096
:10035000299A08952998089571FF05C061FF02C088
:10036000289A089528980895CF93DF9300D0CDB7A9
:10037000DEB765E4CE0102960E94860065E4CE01F8
:1003800001960E94860062E072E0CE0102960E9411
:10039000CD0061E071E0CE0101960E94CD00109287
:1003A000C00088E98093C10086E08093C20087E6A0
:1003B00090E09093C5008093C4000F900F90DF9160
:1003C000CF9108958091C00085FFFCCF6093C60057
:1003D00008958091C00085FFFCCF6093C60008950A
:1003E0000F931F93CF93DF938C01EB0169916623E9
:1003F00021F0C8010E94E201F9CFDF91CF911F9156
:100400000F9108958091C00087FF03C08091C600BE
:10041000089580E008956130710551F484B18862D7
:1004200084B9249881E58CBD8DB58E7F8DBD0895EE
:10043000672B21F42398249A80E48CBD08956EBD27
:100440000DB407FEFDCF8EB508956EBD80E090E03F
:100450002EB5883E33E0930719F46EBD80E090E03E
:10046000019627FFF5CF8EB508950F931F93CF9375
:10047000DF938C01EB016991662351F0C8010E9462
:1004800025028FE39CE90197F1F700C00000F3CF4C
:10049000DF91CF911F910F910895CF93DF931F921A
:1004A000CDB7DEB762E4CE0101960E94860062E815
:1004B00070E0CE0101960E94CD008FEF8EBD80E0EE
:1004C00090E03FEF2DB5883E43E0940721F48EB5D0
:1004D0003EBD80E090E0019627FFF4CF8EB50F90EF
:1004E000DF91CF9108958FEF8EBD0DB407FEFDCF44
:1004F0008EB50895CF93DF931F92CDB7DEB761E03D
:1005000070E0CE0101960E940B020F90DF91CF9117
:10051000089584B1836084B92998289A089580E168
:100520000895CF93DF93EC0128988AE18A95F1F73B
:1005300000C060E6CE010E941F0260E0CE010E9472
:100540001F029AE19A95F1F700C0289ADF91CF91A6
:10055000089528982AE12A95F1F700C06FEF0E94CC
:100560001F029AE19A95F1F700C0289A08950E9417
:10057000A902982F907381E009F080E008950E940D
:10058000A90285FD04C084FD04C08FEF089580E0BA
:10059000089581E00895AF92BF92CF92DF92FF92CB
:1005A0000F931F93CF93DF931F92CDB7DEB76C01EC
:1005B000F62E8A015B019A2D9F19921760F4F501BE
:1005C00061915F01C60129830E941F02F801819396
:1005D0008F012981F0CF0F90DF91CF911F910F9163
:1005E000FF90DF90CF90BF90AF900895CF92DF92B1
:1005F000EF92FF921F93CF93DF931F92CDB7DEB799
:100600007C01162F6B019C2D911B941748F4F60169
:1006100061916F01C70149830E941F024981F3CF95
:100620000F90DF91CF911F91FF90EF90DF90CF90CF
:1006300008950F931F93CF93DF931F92CDB7DEB72B
:100640008C0128988AE18A95F1F700C06F71606289
:10065000C80149830E941F024981642FC8010E947A
:100660001F028AE18A95F1F700C0289A0F90DF9166
:10067000CF911F910F9108950F931F93CF93DF9305
:10068000EC018B0128988AE18A95F1F700C061E6B8
:10069000CE010E941F0220E1A801B801CE010E94F4
:1006A000CB028AE18A95F1F700C0289A40E467E01E
:1006B000CE01DF91CF911F910F910C941903CF932D
:1006C000DF93EC0128988AE18A95F1F700C062EE89
:1006D000CE010E941F028AE18A95F1F700C0289A94
:1006E00040E767E0CE010E94190329984BE060E0E3
:1006F000CE010E941903299ADF91CF910895CF93DB
:10070000DF93EC0142E065E00E94190340E161E102
:10071000CE010E941903CE010E945F03299ADF9146
:10072000CF910895CF93DF93EC0140E767E00E94FB
:1007300019034AE060E0CE01DF91CF910C941903D8
:100740000F931F93CF93DF93EC018B0129980E94A5
:10075000920328988AE18A95F1F700C061EECE01F4
:100760000E941F028AE18A95F1F700C0289A289812
:100770008AE18A95F1F700C060EACE010E941F026B
:1007800040E1B801CE010E94F6028AE18A95F1F7B4
:1007900000C0289A299ADF91CF911F910F91089557
:1007A000299848E060E00C941903EF92FF920F93B0
:1007B0001F93CF93DF931F92CDB7DEB77C018A01E1
:1007C00028988AE18A95F1F700C06F71C7012983E3
:1007D0000E941F022981A801B801C7010E94CB0213
:1007E0008AE18A95F1F700C0289A0F90DF91CF91A6
:1007F0001F910F91FF90EF900895CF93DF931F9279
:10080000CDB7DEB721E0AE014F5F5F4F67E10E94D9
:10081000D503898181700F90DF91CF910895CF9397
:10082000DF93EC010E94A90286FD08C0CE010E9460
:10083000FD0391E0882319F090E001C091E0892F39
:10084000DF91CF910895CF93DF931F92CDB7DEB79D
:1008500021E0AE014F5F5F4F68E00E94D5038981C0
:100860008F700F90DF91CF910895EF92FF920F93C9
:100870001F93CF93DF931F92CDB7DEB77C018A0120
:1008800028988AE18A95F1F700C06F716062C7010C
:1008900029830E941F022981422FB801C7010E94AB
:1008A000F6028AE18A95F1F700C0289A0F90DF914D
:1008B000CF911F910F91FF90EF900895AB01299870
:1008C00025E06BE00E943504299A08950F931F9349
:1008D000CF93DF93EC018B0125E0AB016AE00E942E
:1008E000350425E0A80160E1CE01DF91CF911F9191
:1008F0000F910C943504CF93DF9300D0CDB7DEB7C2
:10090000CE0101960E947A02CE0102960E94B401A5
:10091000CE0101960E948902CE0101960E947F03BA
:10092000CE0101960E94A9020E9453002FEF89E692
:1009300098E1215080409040E1F700C00000F0CFE6
:04094000F894FFCF59
:0A094400E7E7E7E7E7D7D7D7D7D7F3
:00000001FF
