:100000000C9472000C9493000C9493000C94930045
:100010000C9493000C9493000C9493000C94930014
:100020000C9493000C9493000C9493000C94930004
:100030000C9493000C9493000C9493000C949300F4
:100040000C9493000C9493000C9493000C949300E4
:100050000C9493000C9493000C9493000C949300D4
:100060000C9493000C9493000C9493000C949300C4
:100070000C9493000C9493000C9493000C949300B4
:100080000C9493000C9493000C9493000C949300A4
:100090000C9493000C9493000C9493000C94930094
:1000A0000C9493000C9493000C9493000C94930084
:1000B0000C9493000C9493000C9493000C94930074
:1000C0000C9493000C9493000C9493000C94930064
:1000D0000C9493000C9493000C9493000C94930054
:1000E0000C94930011241FBECFEFD1E2DEBFCDBF31
:1000F00000E00CBF12E0A0E0B2E0E4EAF5E000E0CE
:100100000BBF02C007900D92A834B107D9F722E0C7
:10011000A8E4B2E001C01D92AE34B207E1F70E943C
:100120009A020C94D0020C940000EF92FF920F936D
:100130001F93CF93DF931F92CDB7DEB7E82ECE018A
:1001400001960E94F60107E010E00E2C000CFF085B
:10015000C701002E02C0959587950A94E2F780FFAB
:1001600002C061E301C060E3CE0101960E94250256
:100170000150110968F76AE0CE0101960E9425023C
:100180000F90DF91CF911F910F91FF90EF90089505
:10019000FC0160830895FC0180818234E1F562FFF7
:1001A0000BC083B1082E000C990B80959095892F78
:1001B000881F8827881F31C063FF06C083B18295DE
:1001C0008695869583701EC064FF05C083B18295B5
:1001D0008695877017C065FF04C083B182958F70C4
:1001E00011C066FF05C083B18695869586950AC0C5
:1001F00067FF04C083B18695869504C070FF04C074
:1002000083B1869591E004C071FF06C093B181E08F
:100210008927817002C0089580E090E00895FC0174
:100220009B012170332760FF21C080818234F1F46B
:1002300062FF02C0279A1AC063FF02C0269A16C046
:1002400064FF02C0259A12C065FF02C0249A0EC046
:1002500066FF02C0239A0AC067FF02C0229A06C046
:1002600070FF02C0219A02C071FD209ACB018270FA
:10027000992761FF6EC040814234F9F462FF02C0E9
:1002800027981BC063FF02C0269817C064FF02C0F6
:10029000259813C065FF02C024980FC066FF02C0F6
:1002A00023980BC067FF02C0229807C070FF02C0EE
:1002B000219803C071FF0DC02098232B51F020819D
:1002C000243409F04DC062FF28C0579A892B09F4E5
:1002D00047C08081843409F043C062FF02C0579850
:1002E000089563FF02C05698089564FF02C05598B0
:1002F000089565FF02C05498089566FF02C05398A0
:10030000089567FF02C05298089570FF02C0519887
:10031000089571FF25C05098089563FF02C0569A52
:10032000D5CF64FF02C0559AD1CF65FF02C0549A61
:10033000CDCF66FF02C0539AC9CF67FF02C0529A61
:10034000C5CF70FF02C0519AC1CF71FF06C0509A4D
:10035000BDCF232B09F0B3CF0895892B09F0BDCF72
:100360000895FC018081823409F03FC062FF06C01D
:1003700061FF02C02F9A08952F98089563FF06C069
:1003800061FF02C02E9A08952E98089564FF06C05A
:1003900061FF02C02D9A08952D98089565FF06C04B
:1003A00061FF02C02C9A08952C98089566FF06C03C
:1003B00061FF02C02B9A08952B98089567FF06C02D
:1003C00061FF02C02A9A08952A98089570FF06C016
:1003D00061FF02C0299A08952998089571FF05C008
:1003E00061FF02C0289A089528980895CF93DF935B
:1003F0001F921F92CDB7DEB765E4CE0102960E9430
:10040000C80065E4CE0101960E94C80062E072E077
:10041000CE0102960E940F0161E071E0CE010196CB
:100420000E940F011092C00088E98093C10086E00D
:100430008093C20087E690E09093C5008093C4004B
:100440000F900F90DF91CF9108958091C00085FFAC
:10045000FCCF6093C60008958091C00085FFFCCF5B
:100460006093C60008950F931F93CF93DF938C0181
:10047000EB016991662321F0C8010E942502F9CFA2
:10048000DF91CF911F910F9108958091C00087FF58
:1004900003C08091C600089580E008956130710521
:1004A00031F484B1876084B9239881ED05C0672B4E
:1004B00031F42398249A80E48CBD81E08DBD0895A9
:1004C000CF93DF931F921F92CDB7DEB7CE01019677
:1004D0006A830E94F6016A816EBD6CE272E0CE0111
:1004E00001960E9433020DB407FEFDCF8EB50F902A
:1004F0000F90DF91CF9108956EBD8DB58EB50895A3
:10050000FB018191BF01882351F08EBD8DB58EB561
:100510008FE39CE90197F1F700C00000F1CF089547
:100520008FEF8EBD8DB58EB508958FEF8EBD8DB5D5
:100530008EB50895CF93DF931F921F92CDB7DEB78C
:10054000CE0102960E94F60161E070E0CE010196B4
:100550000E944E026AE072E0CE0102960E943302CF
:1005600011E364E172E0CE0101960E9480022FEF58
:1005700081EE94E0215080409040E1F700C00000FF
:10058000612FCE0101960E947C022FEF81E19AE754
:10059000215080409040E1F700C000001F5FE1CF94
:0405A000F894FFCFFD
:1005A400E7E7E7E7E7D7D7D7D7D7656D7065736512
:1005B4006D6F73000A68616369656E646F20756EA0
:1005C4006120707275656261200A20000A686F6C90
:1005D40061206C6C6567756520616C205350495FC0
:0805E40055494E54380A00008D
:00000001FF
