:100000000C9472000C947E000C947E000C947E0084
:100010000C947E000C947E000C947E000C947E0068
:100020000C947E000C947E000C947E000C947E0058
:100030000C947E000C947E000C947E000C947E0048
:100040000C947E000C947E000C947E000C947E0038
:100050000C947E000C947E000C947E000C947E0028
:100060000C947E000C947E000C947E000C947E0018
:100070000C947E000C947E000C947E000C947E0008
:100080000C947E000C947E000C947E000C947E00F8
:100090000C947E000C947E000C947E000C947E00E8
:1000A0000C947E000C947E000C947E000C947E00D8
:1000B0000C947E000C947E000C947E000C947E00C8
:1000C0000C947E000C947E000C947E000C947E00B8
:1000D0000C947E000C947E000C947E000C947E00A8
:1000E0000C947E0011241FBECFEFD1E2DEBFCDBF46
:1000F00000E00CBF0E9409030C9425030C9400003F
:100100008091C00085FFFCCF6093C60008950F93D7
:100110001F93CF93DF938C01EB016991662321F04C
:10012000C8010E948000F9CFDF91CF911F910F91FC
:1001300008958091C00087FF03C08091C600089594
:1001400080E0089587E084B984E0660F771F8A9580
:10015000E1F761666CBD08956EBD0DB407FEFDCF7D
:100160008EB50895FC0160830895FC01808182347E
:1001700001F562FF02C083B123C063FF02C083B1F7
:100180002DC064FF02C083B132C065FF02C083B1DD
:1001900036C066FF02C083B139C067FF02C083B1B9
:1001A0003DC070FF02C083B140C071FF49C093B130
:1001B00043C0883409F044C062FF0CC08091000144
:1001C000082E000C990B80959095892F881F882701
:1001D000881F37C063FF07C0809100018295869514
:1001E0008695837023C064FF06C0809100018295CC
:1001F000869587701BC065FF05C0809100018295C0
:100200008F7014C066FF06C08091000186958695A8
:1002100086950CC067FF05C0809100018695869584
:1002200005C070FF05C080910001869591E005C072
:1002300071FF06C09091000181E08927817001C0A3
:1002400080E090E00895FC0160FF76C080818534F5
:10025000F1F462FF02C06F9A1AC063FF02C06E9A87
:1002600016C064FF02C06D9A12C065FF02C06C9A8E
:100270000EC066FF02C06B9A0AC067FF02C06A9A8E
:1002800006C070FF02C0699A02C071FD689A808141
:10029000883489F562FF04C080910101806829C01B
:1002A00063FF04C080910101806423C064FF04C027
:1002B0008091010180621DC065FF04C08091010131
:1002C000806117C066FF04C080910101886011C081
:1002D00067FF04C08091010184600BC070FF04C0FF
:1002E00080910101826005C071FF05C0809101010C
:1002F00081608093010180818234F1F462FF02C049
:10030000279A1AC063FF02C0269A16C064FF02C073
:10031000259A12C065FF02C0249A0EC066FF02C073
:10032000239A0AC067FF02C0229A06C070FF02C06B
:10033000219A02C071FD209A61FF76C080818534C8
:10034000F1F462FF02C06F981AC063FF02C06E989A
:1003500016C064FF02C06D9812C065FF02C06C98A1
:100360000EC066FF02C06B980AC067FF02C06A98A1
:1003700006C070FF02C0699802C071FD6898808154
:10038000883489F562FF04C0809101018F7729C00C
:1003900063FF04C0809101018F7B23C064FF04C010
:1003A000809101018F7D1DC065FF04C08091010116
:1003B0008F7E17C066FF04C080910101877F11C046
:1003C00067FF04C0809101018B7F0BC070FF04C0E8
:1003D000809101018D7F05C071FF05C080910101F1
:1003E0008E7F8093010180818234F1F462FF02C02C
:1003F0002798089563FF02C02698089564FF02C0FD
:100400002598089565FF02C02498089566FF02C0EC
:100410002398089567FF02C02298089570FF02C0D4
:100420002198089571FD20980895CF93DF931F922E
:100430001F92CDB7DEB785E48A83898362E072E0DC
:10044000CE0102960E94230161E071E0CE01019687
:100450000E9423011092C00088E98093C10086E0C9
:100460008093C20087E690E09093C5008093C4001B
:100470000F900F90DF91CF910895FC018081883417
:1004800009F053C062FF08C08091020161FF02C001
:10049000806829C08F7727C063FF08C08091020160
:1004A00061FF02C080641FC08F7B1DC064FF08C055
:1004B0008091020161FF02C0806215C08F7D13C070
:1004C00065FF08C08091020161FF02C080610BC01E
:1004D0008F7E09C066FF0AC08091020161FF02C0E1
:1004E000886001C0877F809302011FC067FF08C03A
:1004F0009091020161FF02C0946015C09B7F13C000
:1005000070FF08C09091020161FF02C092600BC0B1
:100510009D7F09C071FF09C09091020161FF02C077
:10052000916001C09E7F909302018081823409F026
:100530003FC062FF06C061FF02C02F9A08952F9846
:10054000089563FF06C061FF02C02E9A08952E9899
:10055000089564FF06C061FF02C02D9A08952D988A
:10056000089565FF06C061FF02C02C9A08952C987B
:10057000089566FF06C061FF02C02B9A08952B986C
:10058000089567FF06C061FF02C02A9A08952A985D
:10059000089570FF06C061FF02C0299A0895299846
:1005A000089571FF05C061FF02C0289A0895289838
:1005B00008951F93CF93DF931F92CDB7DEB7162F09
:1005C00082E4898361E072E0CE0101960E943D02DF
:1005D0001EBD0EB407FEFDCF62E072E0CE010196B3
:1005E0000E943D020F90DF91CF911F9108950F93CC
:1005F0001F93CF93DF938C01EB016991662321F068
:10060000C8010E94D902F9CFDF91CF911F910F91BC
:100610000895CF93DF931F92CDB7DEB762E4CE018A
:1006200001960E94B20061E170E0CE0101960E9445
:10063000230162E170E0CE0101960E943D0280E05C
:0E06400090E00F90DF91CF910895F894FFCFD6
:00000001FF
