:100000000C9472000C947E000C947E000C947E0084
:100010000C947E000C947E000C947E000C947E0068
:100020000C947E000C947E000C947E000C947E0058
:100030000C947E000C947E000C947E000C947E0048
:100040000C947E000C947E000C947E000C947E0038
:100050000C947E000C947E000C947E000C947E0028
:100060000C947E000C947E000C947E000C947E0018
:100070000C947E000C947E000C947E000C947E0008
:100080000C947E000C947E000C947E000C947E00F8
:100090000C947E000C947E000C947E000C947E00E8
:1000A0000C947E000C947E000C947E000C947E00D8
:1000B0000C947E000C947E000C947E000C947E00C8
:1000C0000C947E000C947E000C947E000C947E00B8
:1000D0000C947E000C947E000C947E000C947E00A8
:1000E0000C947E0011241FBECFEFD1E2DEBFCDBF46
:1000F00000E00CBF0E943E020C947B020C940000B6
:10010000FC0160830895FC018081823421F562FF47
:1001100002C083B127C063FF02C083B131C064FF56
:1001200006C083B182958695877091E054C065FFC3
:1001300002C083B133C066FF02C083B136C067FF1F
:1001400002C083B13AC070FF02C083B13DC071FFED
:1001500046C093B13FC0883409F040C062FF0CC074
:1001600080910001082E000C990B80959095892FA5
:10017000881F8827881F34C063FF07C08091000153
:100180008295869586958370D0CF64FF03C0809159
:100190000001C8CF65FF05C08091000182958F7076
:1001A000C4CF66FF06C0809100018695869586952E
:1001B000BCCF67FF05C08091000186958695B5CFBD
:1001C00070FF04C0809100018695AFCF71FF07C01A
:1001D0009091000181E08927817002C0089580E03C
:1001E00090E00895FC0160FF55C08081883489F556
:1001F00062FF04C080910101806829C063FF04C0D0
:1002000080910101806423C064FF04C080910101DA
:1002100080621DC065FF04C080910101806117C02C
:1002200066FF04C080910101886011C067FF04C0AF
:100230008091010184600BC070FF04C080910101B6
:10024000826005C071FF05C08091010181608093CB
:10025000010180818234F1F462FF02C0279A1AC042
:1002600063FF02C0269A16C064FF02C0259A12C01E
:1002700065FF02C0249A0EC066FF02C0239A0AC01E
:1002800067FF02C0229A06C070FF02C0219A02C016
:1002900071FD209A61FF55C08081883489F562FF25
:1002A00004C0809101018F7729C063FF04C0809151
:1002B00001018F7B23C064FF04C0809101018F7D09
:1002C0001DC065FF04C0809101018F7E17C066FFCD
:1002D00004C080910101877F11C067FF04C0809135
:1002E00001018B7F0BC070FF04C0809101018D7FE5
:1002F00005C071FF05C0809101018E7F80930101CF
:1003000080818234F1F462FF02C02798089563FF70
:1003100002C02698089564FF02C02598089565FFDD
:1003200002C02498089566FF02C02398089567FFCD
:1003300002C02298089570FF02C02198089571FDAF
:1003400020980895FC018081883409F053C062FF31
:1003500008C08091020161FF02C0806829C08F77C8
:1003600027C063FF08C08091020161FF02C0806462
:100370001FC08F7B1DC064FF08C08091020161FF18
:1003800002C0806215C08F7D13C065FF08C08091D8
:10039000020161FF02C080610BC08F7E09C066FF51
:1003A0000AC08091020161FF02C0886001C0877F9E
:1003B000809302011FC067FF08C09091020161FF96
:1003C00002C0946015C09B7F13C070FF08C090915D
:1003D000020161FF02C092600BC09D7F09C071FFE6
:1003E00009C09091020161FF02C0916001C09E7F2F
:1003F000909302018081823409F03FC062FF06C001
:1004000061FF02C02F9A08952F98089563FF06C0D8
:1004100061FF02C02E9A08952E98089564FF06C0C9
:1004200061FF02C02D9A08952D98089565FF06C0BA
:1004300061FF02C02C9A08952C98089566FF06C0AB
:1004400061FF02C02B9A08952B98089567FF06C09C
:1004500061FF02C02A9A08952A98089570FF06C085
:1004600061FF02C0299A08952998089571FF05C077
:1004700061FF02C0289A089528980895CF93DF93CA
:100480001F921F92CDB7DEB762E4CE0102960E94A2
:10049000800065E070E0CE0102960E94F20068E400
:1004A000CE0101960E94800062E170E0CE010196CB
:1004B0000E94F20065E070E0CE0102960E94A20167
:1004C0002FEF83ED90E3215080409040E1F700C092
:1004D000000060E170E0CE0101960E948300019768
:1004E00019F465E070E002C066E070E0CE010296AB
:0A04F0000E94A201EECFF894FFCFA6
:00000001FF
