:100000000C9434000C9451000C9451000C94510049
:100010000C9451000C9451000C9451000C9451001C
:100020000C9451000C9451000C9451000C9451000C
:100030000C9451000C9451000C9451000C945100FC
:100040000C9451000C9451000C9451000C945100EC
:100050000C9451000C9451000C9451000C945100DC
:100060000C9451000C94510011241FBECFEFD8E026
:10007000DEBFCDBF11E0A0E0B1E0EAE4F5E002C0F0
:1000800005900D92A834B107D9F721E0A8E4B1E0BA
:1000900001C01D92AE34B207E1F70E9484020C94B5
:1000A000A3020C940000EF92FF920F931F93CF9343
:1000B000DF931F92CDB7DEB7E82ECE0101960E94E6
:1000C000B40107E010E00E2C000CFF08C701002E61
:1000D00002C0959587950A94E2F780FF02C061E31C
:1000E00001C060E3CE0101960E94E20101501109B6
:1000F00068F76AE0CE0101960E94E2010F90DF915D
:10010000CF911F910F91FF90EF900895FC016083B4
:100110000895FC0180818234E1F562FF0BC083B158
:10012000082E000C990B80959095892F881F8827A1
:10013000881F31C063FF06C083B18295869586957E
:1001400083701EC064FF05C083B182958695877059
:1001500017C065FF04C083B182958F7011C066FF20
:1001600005C083B18695869586950AC067FF04C051
:1001700083B18695869504C070FF04C083B18695CF
:1001800091E004C071FF06C093B181E089278170BE
:1001900002C0089580E090E00895FC019B01217069
:1001A000332760FF21C080818234F1F462FF02C0F6
:1001B000279A1AC063FF02C0269A16C064FF02C0C5
:1001C000259A12C065FF02C0249A0EC066FF02C0C5
:1001D000239A0AC067FF02C0229A06C070FF02C0BD
:1001E000219A02C071FD209ACB018270992761FF8C
:1001F0006EC040814234F9F462FF02C027981BC0F0
:1002000063FF02C0269817C064FF02C0259813C080
:1002100065FF02C024980FC066FF02C023980BC080
:1002200067FF02C0229807C070FF02C0219803C078
:1002300071FF0DC02098232B51F02081243409F048
:100240004DC062FF28C0579A892B09F447C08081AE
:10025000843409F043C062FF02C05798089563FFD9
:1002600002C05698089564FF02C05598089565FF2E
:1002700002C05498089566FF02C05398089567FF1E
:1002800002C05298089570FF02C05198089571FFFE
:1002900025C05098089563FF02C0569AD5CF64FFD9
:1002A00002C0559AD1CF65FF02C0549ACDCF66FFE8
:1002B00002C0539AC9CF67FF02C0529AC5CF70FFE0
:1002C00002C0519AC1CF71FF06C0509ABDCF232BF7
:1002D00009F0B3CF0895892B09F0BDCF0895FC0133
:1002E0008081823409F03FC062FF06C061FF02C016
:1002F0002F9A08952F98089563FF06C061FF02C0EA
:100300002E9A08952E98089564FF06C061FF02C0DA
:100310002D9A08952D98089565FF06C061FF02C0CB
:100320002C9A08952C98089566FF06C061FF02C0BC
:100330002B9A08952B98089567FF06C061FF02C0AD
:100340002A9A08952A98089570FF06C061FF02C096
:10035000299A08952998089571FF05C061FF02C088
:10036000289A089528980895CF93DF9300D0CDB7A9
:10037000DEB765E4CE0102960E94860065E4CE01F8
:1003800001960E94860062E072E0CE0102960E9411
:10039000CD0061E071E0CE0101960E94CD00109287
:1003A000C00088E98093C10086E08093C20087E6A0
:1003B00090E09093C5008093C4000F900F90DF9160
:1003C000CF9108958091C00085FFFCCF6093C60057
:1003D00008958091C00085FFFCCF6093C60008950A
:1003E0000F931F93CF93DF938C01EB0169916623E9
:1003F00021F0C8010E94E201F9CFDF91CF911F9156
:100400000F9108958091C00087FF03C08091C600BE
:10041000089580E008950F931F93CF93DF931F9269
:10042000CDB7DEB78B01CE0101960E94B401013039
:10043000110549F484B18B6284B9249881ED8CBD97
:1004400081E08DBD0CC0012B51F464E171E0CE015F
:1004500001960E94F0012398249A81E48CBD0F90AC
:10046000DF91CF911F910F910895CF93DF9300D02B
:10047000CDB7DEB7CE0101966A830E94B4016A81CE
:100480006EBD6CE271E0CE0101960E94F0010DB4E8
:1004900007FEFDCF8EB50F900F90DF91CF9108959D
:1004A0006EBD80E090E02EB5883E33E0930719F4EE
:1004B0006EBD80E090E0019627FFF5CF8EB50895E0
:1004C0000F931F93CF93DF938C01EB016991662308
:1004D00051F0C8010E9450028FE39CE90197F1F7A7
:1004E00000C00000F3CFDF91CF911F910F910895CD
:1004F0008FEF8EBD0DB407FEFDCF8EB508958FEF43
:100500008EBD8DB58EB50895CF93DF9300D0CDB756
:10051000DEB7CE0102960E94B40160E070E0CE0129
:1005200001960E940B026AE071E0CE0102960E94E1
:10053000F001CE0101960E947802682FCE0102964A
:0A0540000E94E201F6CFF894FFCF0D
:10054A00E7E7E7E7E7D7D7D7D7D7656D706573656C
:10055A006D6F73000A636F6E6669677572616369AE
:10056A006F6E206573636C61766F0A000A686F6C40
:10057A0061206C6C6567756520616C205350495F1A
:08058A0055494E54380A0000E7
:00000001FF
